{
  "contractName": "MetaturfNFT",
  "abi": [
    {
      "inputs": [],
      "stateMutability": "nonpayable",
      "type": "constructor"
    },
    {
      "anonymous": false,
      "inputs": [
        {
          "indexed": true,
          "internalType": "address",
          "name": "owner",
          "type": "address"
        },
        {
          "indexed": true,
          "internalType": "address",
          "name": "approved",
          "type": "address"
        },
        {
          "indexed": true,
          "internalType": "uint256",
          "name": "tokenId",
          "type": "uint256"
        }
      ],
      "name": "Approval",
      "type": "event"
    },
    {
      "anonymous": false,
      "inputs": [
        {
          "indexed": true,
          "internalType": "address",
          "name": "owner",
          "type": "address"
        },
        {
          "indexed": true,
          "internalType": "address",
          "name": "operator",
          "type": "address"
        },
        {
          "indexed": false,
          "internalType": "bool",
          "name": "approved",
          "type": "bool"
        }
      ],
      "name": "ApprovalForAll",
      "type": "event"
    },
    {
      "anonymous": false,
      "inputs": [
        {
          "indexed": false,
          "internalType": "uint256",
          "name": "horseid",
          "type": "uint256"
        }
      ],
      "name": "LogMint",
      "type": "event"
    },
    {
      "anonymous": false,
      "inputs": [
        {
          "indexed": true,
          "internalType": "address",
          "name": "from",
          "type": "address"
        },
        {
          "indexed": true,
          "internalType": "address",
          "name": "to",
          "type": "address"
        },
        {
          "indexed": true,
          "internalType": "uint256",
          "name": "tokenId",
          "type": "uint256"
        }
      ],
      "name": "Transfer",
      "type": "event"
    },
    {
      "inputs": [
        {
          "internalType": "address",
          "name": "to",
          "type": "address"
        },
        {
          "internalType": "uint256",
          "name": "tokenId",
          "type": "uint256"
        }
      ],
      "name": "approve",
      "outputs": [],
      "stateMutability": "nonpayable",
      "type": "function"
    },
    {
      "inputs": [
        {
          "internalType": "address",
          "name": "owner",
          "type": "address"
        }
      ],
      "name": "balanceOf",
      "outputs": [
        {
          "internalType": "uint256",
          "name": "",
          "type": "uint256"
        }
      ],
      "stateMutability": "view",
      "type": "function",
      "constant": true
    },
    {
      "inputs": [
        {
          "internalType": "uint256",
          "name": "tokenId",
          "type": "uint256"
        }
      ],
      "name": "getApproved",
      "outputs": [
        {
          "internalType": "address",
          "name": "",
          "type": "address"
        }
      ],
      "stateMutability": "view",
      "type": "function",
      "constant": true
    },
    {
      "inputs": [
        {
          "internalType": "address",
          "name": "owner",
          "type": "address"
        },
        {
          "internalType": "address",
          "name": "operator",
          "type": "address"
        }
      ],
      "name": "isApprovedForAll",
      "outputs": [
        {
          "internalType": "bool",
          "name": "",
          "type": "bool"
        }
      ],
      "stateMutability": "view",
      "type": "function",
      "constant": true
    },
    {
      "inputs": [],
      "name": "metaturfHorseRacingData",
      "outputs": [
        {
          "internalType": "contract MetaturfHorseRacingData",
          "name": "",
          "type": "address"
        }
      ],
      "stateMutability": "view",
      "type": "function",
      "constant": true
    },
    {
      "inputs": [],
      "name": "name",
      "outputs": [
        {
          "internalType": "string",
          "name": "",
          "type": "string"
        }
      ],
      "stateMutability": "view",
      "type": "function",
      "constant": true
    },
    {
      "inputs": [
        {
          "internalType": "uint256",
          "name": "tokenId",
          "type": "uint256"
        }
      ],
      "name": "ownerOf",
      "outputs": [
        {
          "internalType": "address",
          "name": "",
          "type": "address"
        }
      ],
      "stateMutability": "view",
      "type": "function",
      "constant": true
    },
    {
      "inputs": [
        {
          "internalType": "address",
          "name": "from",
          "type": "address"
        },
        {
          "internalType": "address",
          "name": "to",
          "type": "address"
        },
        {
          "internalType": "uint256",
          "name": "tokenId",
          "type": "uint256"
        }
      ],
      "name": "safeTransferFrom",
      "outputs": [],
      "stateMutability": "nonpayable",
      "type": "function"
    },
    {
      "inputs": [
        {
          "internalType": "address",
          "name": "from",
          "type": "address"
        },
        {
          "internalType": "address",
          "name": "to",
          "type": "address"
        },
        {
          "internalType": "uint256",
          "name": "tokenId",
          "type": "uint256"
        },
        {
          "internalType": "bytes",
          "name": "_data",
          "type": "bytes"
        }
      ],
      "name": "safeTransferFrom",
      "outputs": [],
      "stateMutability": "nonpayable",
      "type": "function"
    },
    {
      "inputs": [
        {
          "internalType": "address",
          "name": "operator",
          "type": "address"
        },
        {
          "internalType": "bool",
          "name": "approved",
          "type": "bool"
        }
      ],
      "name": "setApprovalForAll",
      "outputs": [],
      "stateMutability": "nonpayable",
      "type": "function"
    },
    {
      "inputs": [
        {
          "internalType": "bytes4",
          "name": "interfaceId",
          "type": "bytes4"
        }
      ],
      "name": "supportsInterface",
      "outputs": [
        {
          "internalType": "bool",
          "name": "",
          "type": "bool"
        }
      ],
      "stateMutability": "view",
      "type": "function",
      "constant": true
    },
    {
      "inputs": [],
      "name": "symbol",
      "outputs": [
        {
          "internalType": "string",
          "name": "",
          "type": "string"
        }
      ],
      "stateMutability": "view",
      "type": "function",
      "constant": true
    },
    {
      "inputs": [
        {
          "internalType": "address",
          "name": "from",
          "type": "address"
        },
        {
          "internalType": "address",
          "name": "to",
          "type": "address"
        },
        {
          "internalType": "uint256",
          "name": "tokenId",
          "type": "uint256"
        }
      ],
      "name": "transferFrom",
      "outputs": [],
      "stateMutability": "nonpayable",
      "type": "function"
    },
    {
      "inputs": [
        {
          "internalType": "address",
          "name": "_addressOfMetaturfHorseRacingData",
          "type": "address"
        }
      ],
      "name": "registerMetaturfHorseRacingDataAddress",
      "outputs": [],
      "stateMutability": "nonpayable",
      "type": "function"
    },
    {
      "inputs": [],
      "name": "isSetMetaturfHorseRacingDataAddress",
      "outputs": [
        {
          "internalType": "bool",
          "name": "",
          "type": "bool"
        }
      ],
      "stateMutability": "view",
      "type": "function",
      "constant": true
    },
    {
      "inputs": [],
      "name": "listTokens",
      "outputs": [
        {
          "internalType": "uint256[]",
          "name": "",
          "type": "uint256[]"
        }
      ],
      "stateMutability": "view",
      "type": "function",
      "constant": true
    },
    {
      "inputs": [],
      "name": "getNumberOfTokens",
      "outputs": [
        {
          "internalType": "uint256",
          "name": "",
          "type": "uint256"
        }
      ],
      "stateMutability": "view",
      "type": "function",
      "constant": true
    },
    {
      "inputs": [
        {
          "internalType": "uint256",
          "name": "_horsetokenid",
          "type": "uint256"
        }
      ],
      "name": "getHorseNFTInfo",
      "outputs": [
        {
          "internalType": "uint256",
          "name": "",
          "type": "uint256"
        },
        {
          "internalType": "string",
          "name": "",
          "type": "string"
        }
      ],
      "stateMutability": "view",
      "type": "function",
      "constant": true
    },
    {
      "inputs": [
        {
          "internalType": "uint256",
          "name": "_horseid",
          "type": "uint256"
        }
      ],
      "name": "horseIsMinted",
      "outputs": [
        {
          "internalType": "bool",
          "name": "",
          "type": "bool"
        }
      ],
      "stateMutability": "view",
      "type": "function",
      "constant": true
    },
    {
      "inputs": [
        {
          "internalType": "uint256",
          "name": "_horseid",
          "type": "uint256"
        },
        {
          "internalType": "address",
          "name": "_to",
          "type": "address"
        }
      ],
      "name": "mint",
      "outputs": [
        {
          "internalType": "uint256",
          "name": "",
          "type": "uint256"
        }
      ],
      "stateMutability": "nonpayable",
      "type": "function"
    },
    {
      "inputs": [
        {
          "internalType": "uint256",
          "name": "_horseid",
          "type": "uint256"
        },
        {
          "internalType": "string",
          "name": "_tokenURI",
          "type": "string"
        }
      ],
      "name": "mint_old",
      "outputs": [
        {
          "internalType": "uint256",
          "name": "",
          "type": "uint256"
        }
      ],
      "stateMutability": "nonpayable",
      "type": "function"
    },
    {
      "inputs": [
        {
          "internalType": "uint256",
          "name": "tokenId",
          "type": "uint256"
        }
      ],
      "name": "tokenURI",
      "outputs": [
        {
          "internalType": "string",
          "name": "",
          "type": "string"
        }
      ],
      "stateMutability": "view",
      "type": "function",
      "constant": true
    }
  ],
  "bytecode": "0x60806040523480156200001157600080fd5b506040518060400160405280600881526020017f4d657461747572660000000000000000000000000000000000000000000000008152506040518060400160405280600281526020017f4d54000000000000000000000000000000000000000000000000000000000000815250816000908051906020019062000096929190620000f9565b508060019080519060200190620000af929190620000f9565b50505033600860006101000a81548173ffffffffffffffffffffffffffffffffffffffff021916908373ffffffffffffffffffffffffffffffffffffffff1602179055506200020e565b8280546200010790620001d8565b90600052602060002090601f0160209004810192826200012b576000855562000177565b82601f106200014657805160ff191683800117855562000177565b8280016001018555821562000177579182015b828111156200017657825182559160200191906001019062000159565b5b5090506200018691906200018a565b5090565b5b80821115620001a55760008160009055506001016200018b565b5090565b7f4e487b7100000000000000000000000000000000000000000000000000000000600052602260045260246000fd5b60006002820490506001821680620001f157607f821691505b60208210811415620002085762000207620001a9565b5b50919050565b614aee806200021e6000396000f3fe608060405234801561001057600080fd5b506004361061015f576000357c01000000000000000000000000000000000000000000000000000000009004806394bf804d116100d5578063b88d4fde11610099578063b88d4fde146103b8578063bcc64655146103d4578063c87b56dd14610405578063e985e9c514610435578063efeecb5114610465578063f0673c69146104835761015f565b806394bf804d1461030057806395d89b4114610330578063a22cb4651461034e578063a7b704b01461036a578063b47856931461039a5761015f565b806342842e0e1161012757806342842e0e1461021a5780636352211e1461023657806370a08231146102665780637488ff761461029657806389955ff4146102b45780638bd9e3e6146102e45761015f565b806301ffc9a71461016457806306fdde0314610194578063081812fc146101b2578063095ea7b3146101e257806323b872dd146101fe575b600080fd5b61017e60048036038101906101799190612840565b6104a1565b60405161018b9190612888565b60405180910390f35b61019c610583565b6040516101a9919061293c565b60405180910390f35b6101cc60048036038101906101c79190612994565b610615565b6040516101d99190612a02565b60405180910390f35b6101fc60048036038101906101f79190612a49565b61069a565b005b61021860048036038101906102139190612a89565b6107b2565b005b610234600480360381019061022f9190612a89565b610812565b005b610250600480360381019061024b9190612994565b610832565b60405161025d9190612a02565b60405180910390f35b610280600480360381019061027b9190612adc565b6108e4565b60405161028d9190612b18565b60405180910390f35b61029e61099c565b6040516102ab9190612bf1565b60405180910390f35b6102ce60048036038101906102c99190612994565b6109f4565b6040516102db9190612888565b60405180910390f35b6102fe60048036038101906102f99190612adc565b610a24565b005b61031a60048036038101906103159190612c13565b610af8565b6040516103279190612b18565b60405180910390f35b610338610de7565b604051610345919061293c565b60405180910390f35b61036860048036038101906103639190612c7f565b610e79565b005b610384600480360381019061037f9190612df4565b610ffa565b6040516103919190612b18565b60405180910390f35b6103a2611316565b6040516103af9190612eaf565b60405180910390f35b6103d260048036038101906103cd9190612f6b565b61133c565b005b6103ee60048036038101906103e99190612994565b61139e565b6040516103fc929190612fee565b60405180910390f35b61041f600480360381019061041a9190612994565b611464565b60405161042c919061293c565b60405180910390f35b61044f600480360381019061044a919061301e565b611b0b565b60405161045c9190612888565b60405180910390f35b61046d611b9f565b60405161047a9190612b18565b60405180910390f35b61048b611bb0565b6040516104989190612888565b60405180910390f35b60007f80ac58cd000000000000000000000000000000000000000000000000000000007bffffffffffffffffffffffffffffffffffffffffffffffffffffffff1916827bffffffffffffffffffffffffffffffffffffffffffffffffffffffff1916148061056c57507f5b5e139f000000000000000000000000000000000000000000000000000000007bffffffffffffffffffffffffffffffffffffffffffffffffffffffff1916827bffffffffffffffffffffffffffffffffffffffffffffffffffffffff1916145b8061057c575061057b82611c19565b5b9050919050565b6060600080546105929061308d565b80601f01602080910402602001604051908101604052809291908181526020018280546105be9061308d565b801561060b5780601f106105e05761010080835404028352916020019161060b565b820191906000526020600020905b8154815290600101906020018083116105ee57829003601f168201915b5050505050905090565b600061062082611c83565b61065f576040517f08c379a000000000000000000000000000000000000000000000000000000000815260040161065690613131565b60405180910390fd5b6004600083815260200190815260200160002060009054906101000a900473ffffffffffffffffffffffffffffffffffffffff169050919050565b60006106a582610832565b90508073ffffffffffffffffffffffffffffffffffffffff168373ffffffffffffffffffffffffffffffffffffffff161415610716576040517f08c379a000000000000000000000000000000000000000000000000000000000815260040161070d906131c3565b60405180910390fd5b8073ffffffffffffffffffffffffffffffffffffffff16610735611cef565b73ffffffffffffffffffffffffffffffffffffffff16148061076457506107638161075e611cef565b611b0b565b5b6107a3576040517f08c379a000000000000000000000000000000000000000000000000000000000815260040161079a90613255565b60405180910390fd5b6107ad8383611cf7565b505050565b6107c36107bd611cef565b82611db0565b610802576040517f08c379a00000000000000000000000000000000000000000000000000000000081526004016107f9906132e7565b60405180910390fd5b61080d838383611e8e565b505050565b61082d8383836040518060200160405280600081525061133c565b505050565b6000806002600084815260200190815260200160002060009054906101000a900473ffffffffffffffffffffffffffffffffffffffff169050600073ffffffffffffffffffffffffffffffffffffffff168173ffffffffffffffffffffffffffffffffffffffff1614156108db576040517f08c379a00000000000000000000000000000000000000000000000000000000081526004016108d290613379565b60405180910390fd5b80915050919050565b60008073ffffffffffffffffffffffffffffffffffffffff168273ffffffffffffffffffffffffffffffffffffffff161415610955576040517f08c379a000000000000000000000000000000000000000000000000000000000815260040161094c9061340b565b60405180910390fd5b600360008373ffffffffffffffffffffffffffffffffffffffff1673ffffffffffffffffffffffffffffffffffffffff168152602001908152602001600020549050919050565b6060600b8054806020026020016040519081016040528092919081815260200182805480156109ea57602002820191906000526020600020905b8154815260200190600101908083116109d6575b5050505050905090565b600080600a6000848152602001908152602001600020541415610a1a5760009050610a1f565b600190505b919050565b600860009054906101000a900473ffffffffffffffffffffffffffffffffffffffff1673ffffffffffffffffffffffffffffffffffffffff163373ffffffffffffffffffffffffffffffffffffffff1614610ab4576040517f08c379a0000000000000000000000000000000000000000000000000000000008152600401610aab9061349d565b60405180910390fd5b80600760006101000a81548173ffffffffffffffffffffffffffffffffffffffff021916908373ffffffffffffffffffffffffffffffffffffffff16021790555050565b60008073ffffffffffffffffffffffffffffffffffffffff168273ffffffffffffffffffffffffffffffffffffffff161415610b69576040517f08c379a0000000000000000000000000000000000000000000000000000000008152600401610b6090613509565b60405180910390fd5b6000600a60008581526020019081526020016000205414610bbf576040517f08c379a0000000000000000000000000000000000000000000000000000000008152600401610bb690613575565b60405180910390fd5b600760009054906101000a900473ffffffffffffffffffffffffffffffffffffffff1673ffffffffffffffffffffffffffffffffffffffff1663e82ed9b4846040518263ffffffff167c0100000000000000000000000000000000000000000000000000000000028152600401610c369190612b18565b602060405180830381865afa158015610c53573d6000803e3d6000fd5b505050506040513d601f19601f82011682018060405250810190610c7791906135aa565b610cb6576040517f08c379a0000000000000000000000000000000000000000000000000000000008152600401610cad90613623565b60405180910390fd5b610cc060066120ea565b6000610ccc6006612100565b905060405180606001604052808581526020018473ffffffffffffffffffffffffffffffffffffffff16815260200160405180602001604052806000815250815250600960008381526020019081526020016000206000820151816000015560208201518160010160006101000a81548173ffffffffffffffffffffffffffffffffffffffff021916908373ffffffffffffffffffffffffffffffffffffffff1602179055506040820151816002019080519060200190610d8e929190612709565b50905050600b81908060018154018082558091505060019003906000526020600020016000909190919091505580600a600086815260200190815260200160002081905550610ddd838261210e565b8091505092915050565b606060018054610df69061308d565b80601f0160208091040260200160405190810160405280929190818152602001828054610e229061308d565b8015610e6f5780601f10610e4457610100808354040283529160200191610e6f565b820191906000526020600020905b815481529060010190602001808311610e5257829003601f168201915b5050505050905090565b610e81611cef565b73ffffffffffffffffffffffffffffffffffffffff168273ffffffffffffffffffffffffffffffffffffffff161415610eef576040517f08c379a0000000000000000000000000000000000000000000000000000000008152600401610ee69061368f565b60405180910390fd5b8060056000610efc611cef565b73ffffffffffffffffffffffffffffffffffffffff1673ffffffffffffffffffffffffffffffffffffffff16815260200190815260200160002060008473ffffffffffffffffffffffffffffffffffffffff1673ffffffffffffffffffffffffffffffffffffffff16815260200190815260200160002060006101000a81548160ff0219169083151502179055508173ffffffffffffffffffffffffffffffffffffffff16610fa9611cef565b73ffffffffffffffffffffffffffffffffffffffff167f17307eab39ab6107e8899845ad3d59bd9653f200f220920489ca2b5937696c3183604051610fee9190612888565b60405180910390a35050565b6000600860009054906101000a900473ffffffffffffffffffffffffffffffffffffffff1673ffffffffffffffffffffffffffffffffffffffff163373ffffffffffffffffffffffffffffffffffffffff161461108c576040517f08c379a00000000000000000000000000000000000000000000000000000000081526004016110839061349d565b60405180910390fd5b6000600a600085815260200190815260200160002054146110e2576040517f08c379a00000000000000000000000000000000000000000000000000000000081526004016110d990613575565b60405180910390fd5b600760009054906101000a900473ffffffffffffffffffffffffffffffffffffffff1673ffffffffffffffffffffffffffffffffffffffff1663e82ed9b4846040518263ffffffff167c01000000000000000000000000000000000000000000000000000000000281526004016111599190612b18565b602060405180830381865afa158015611176573d6000803e3d6000fd5b505050506040513d601f19601f8201168201806040525081019061119a91906135aa565b6111d9576040517f08c379a00000000000000000000000000000000000000000000000000000000081526004016111d090613623565b60405180910390fd5b6111e360066120ea565b60006111ef6006612100565b90506040518060600160405280858152602001600860009054906101000a900473ffffffffffffffffffffffffffffffffffffffff1673ffffffffffffffffffffffffffffffffffffffff16815260200184815250600960008381526020019081526020016000206000820151816000015560208201518160010160006101000a81548173ffffffffffffffffffffffffffffffffffffffff021916908373ffffffffffffffffffffffffffffffffffffffff16021790555060408201518160020190805190602001906112c4929190612709565b5090505080600a60008681526020019081526020016000208190555061130c600860009054906101000a900473ffffffffffffffffffffffffffffffffffffffff168261210e565b8091505092915050565b600760009054906101000a900473ffffffffffffffffffffffffffffffffffffffff1681565b61134d611347611cef565b83611db0565b61138c576040517f08c379a0000000000000000000000000000000000000000000000000000000008152600401611383906132e7565b60405180910390fd5b6113988484848461212c565b50505050565b600060606009600084815260200190815260200160002060000154600960008581526020019081526020016000206002018080546113db9061308d565b80601f01602080910402602001604051908101604052809291908181526020018280546114079061308d565b80156114545780601f1061142957610100808354040283529160200191611454565b820191906000526020600020905b81548152906001019060200180831161143757829003601f168201915b5050505050905091509150915091565b606060006009600084815260200190815260200160002060000154905060606000600760009054906101000a900473ffffffffffffffffffffffffffffffffffffffff1673ffffffffffffffffffffffffffffffffffffffff16634f57641c846040518263ffffffff167c01000000000000000000000000000000000000000000000000000000000281526004016114fc9190612b18565b600060405180830381865afa158015611519573d6000803e3d6000fd5b505050506040513d6000823e3d601f19601f820116820180604052508101906115429190613734565b809250819350505061155261278f565b6040518060e0016040528060bb81526020016149fe60bb91398160006011811061157f5761157e613790565b5b6020020181905250604051806101a00160405280610173815260200161432e6101739139816001601181106115b7576115b6613790565b5b6020020181905250604051806101800160405280610151815260200161406a6101519139816002601181106115ef576115ee613790565b5b60200201819052506040518061020001604052806101cb81526020016148336101cb91398160036011811061162757611626613790565b5b602002018190525060405180610280016040528061024c81526020016145e761024c91398160046011811061165f5761165e613790565b5b602002018190525060405180610180016040528061014581526020016141bb61014591398160056011811061169757611696613790565b5b602002018190525060405180610180016040528061014681526020016144a16101469139816006601181106116cf576116ce613790565b5b60200201819052506040518061020001604052806101c18152602001613e746101c191398160076011811061170757611706613790565b5b6020020181905250604051806060016040528060398152602001613e3b603991398160086011811061173c5761173b613790565b5b6020020181905250828160096011811061175957611758613790565b5b60200201819052506040518060600160405280602e8152602001614300602e913981600a6011811061178e5761178d613790565b5b602002018190525061179f86612188565b81600b601181106117b3576117b2613790565b5b60200201819052506040518060400160405280600281526020017f202800000000000000000000000000000000000000000000000000000000000081525081600c6011811061180557611804613790565b5b602002018190525061181684612188565b81600d6011811061182a57611829613790565b5b60200201819052506040518060600160405280603581526020016140356035913981600e6011811061185f5761185e613790565b5b602002018190525061187082612188565b81600f6011811061188457611883613790565b5b60200201819052506040518060400160405280600d81526020017f3c2f746578743e3c2f7376673e00000000000000000000000000000000000000815250816010601181106118d6576118d5613790565b5b60200201819052506000816000601181106118f4576118f3613790565b5b60200201518260016011811061190d5761190c613790565b5b60200201518360026011811061192657611925613790565b5b60200201518460036011811061193f5761193e613790565b5b60200201518560046011811061195857611957613790565b5b60200201518660056011811061197157611970613790565b5b60200201518760066011811061198a57611989613790565b5b6020020151886007601181106119a3576119a2613790565b5b60200201516040516020016119bf9897969594939291906137fb565b604051602081830303815290604052905080826008601181106119e5576119e4613790565b5b6020020151836009601181106119fe576119fd613790565b5b602002015184600a60118110611a1757611a16613790565b5b602002015185600b60118110611a3057611a2f613790565b5b602002015186600c60118110611a4957611a48613790565b5b602002015187600d60118110611a6257611a61613790565b5b6020020151604051602001611a7d979695949392919061386d565b60405160208183030381529060405290508082600e60118110611aa357611aa2613790565b5b602002015183600f60118110611abc57611abb613790565b5b602002015184601060118110611ad557611ad4613790565b5b6020020151604051602001611aed94939291906138d2565b60405160208183030381529060405290508095505050505050919050565b6000600560008473ffffffffffffffffffffffffffffffffffffffff1673ffffffffffffffffffffffffffffffffffffffff16815260200190815260200160002060008373ffffffffffffffffffffffffffffffffffffffff1673ffffffffffffffffffffffffffffffffffffffff16815260200190815260200160002060009054906101000a900460ff16905092915050565b6000611bab6006612100565b905090565b60008073ffffffffffffffffffffffffffffffffffffffff16600760009054906101000a900473ffffffffffffffffffffffffffffffffffffffff1673ffffffffffffffffffffffffffffffffffffffff161415611c115760009050611c16565b600190505b90565b60007f01ffc9a7000000000000000000000000000000000000000000000000000000007bffffffffffffffffffffffffffffffffffffffffffffffffffffffff1916827bffffffffffffffffffffffffffffffffffffffffffffffffffffffff1916149050919050565b60008073ffffffffffffffffffffffffffffffffffffffff166002600084815260200190815260200160002060009054906101000a900473ffffffffffffffffffffffffffffffffffffffff1673ffffffffffffffffffffffffffffffffffffffff1614159050919050565b600033905090565b816004600083815260200190815260200160002060006101000a81548173ffffffffffffffffffffffffffffffffffffffff021916908373ffffffffffffffffffffffffffffffffffffffff160217905550808273ffffffffffffffffffffffffffffffffffffffff16611d6a83610832565b73ffffffffffffffffffffffffffffffffffffffff167f8c5be1e5ebec7d5bd14f71427d1e84f3dd0314c0f7b2291e5b200ac8c7c3b92560405160405180910390a45050565b6000611dbb82611c83565b611dfa576040517f08c379a0000000000000000000000000000000000000000000000000000000008152600401611df190613982565b60405180910390fd5b6000611e0583610832565b90508073ffffffffffffffffffffffffffffffffffffffff168473ffffffffffffffffffffffffffffffffffffffff161480611e7457508373ffffffffffffffffffffffffffffffffffffffff16611e5c84610615565b73ffffffffffffffffffffffffffffffffffffffff16145b80611e855750611e848185611b0b565b5b91505092915050565b8273ffffffffffffffffffffffffffffffffffffffff16611eae82610832565b73ffffffffffffffffffffffffffffffffffffffff1614611f04576040517f08c379a0000000000000000000000000000000000000000000000000000000008152600401611efb90613a14565b60405180910390fd5b600073ffffffffffffffffffffffffffffffffffffffff168273ffffffffffffffffffffffffffffffffffffffff161415611f74576040517f08c379a0000000000000000000000000000000000000000000000000000000008152600401611f6b90613aa6565b60405180910390fd5b611f7f838383612308565b611f8a600082611cf7565b6001600360008573ffffffffffffffffffffffffffffffffffffffff1673ffffffffffffffffffffffffffffffffffffffff1681526020019081526020016000206000828254611fda9190613af5565b925050819055506001600360008473ffffffffffffffffffffffffffffffffffffffff1673ffffffffffffffffffffffffffffffffffffffff16815260200190815260200160002060008282546120319190613b29565b92505081905550816002600083815260200190815260200160002060006101000a81548173ffffffffffffffffffffffffffffffffffffffff021916908373ffffffffffffffffffffffffffffffffffffffff160217905550808273ffffffffffffffffffffffffffffffffffffffff168473ffffffffffffffffffffffffffffffffffffffff167fddf252ad1be2c89b69c2b068fc378daa952ba7f163c4a11628f55a4df523b3ef60405160405180910390a4505050565b6001816000016000828254019250508190555050565b600081600001549050919050565b61212882826040518060200160405280600081525061230d565b5050565b612137848484611e8e565b61214384848484612368565b612182576040517f08c379a000000000000000000000000000000000000000000000000000000000815260040161217990613bf1565b60405180910390fd5b50505050565b606060008214156121d0576040518060400160405280600181526020017f30000000000000000000000000000000000000000000000000000000000000008152509050612303565b600082905060005b600082146122025780806121eb90613c11565b915050600a826121fb9190613c89565b91506121d8565b60008167ffffffffffffffff81111561221e5761221d612cc9565b5b6040519080825280601f01601f1916602001820160405280156122505781602001600182028036833780820191505090505b5090505b600085146122fc576001826122699190613af5565b9150600a856122789190613cba565b60306122849190613b29565b7f0100000000000000000000000000000000000000000000000000000000000000028183815181106122b9576122b8613790565b5b60200101907effffffffffffffffffffffffffffffffffffffffffffffffffffffffffffff1916908160001a905350600a856122f59190613c89565b9450612254565b8093505050505b919050565b505050565b6123178383612528565b6123246000848484612368565b612363576040517f08c379a000000000000000000000000000000000000000000000000000000000815260040161235a90613bf1565b60405180910390fd5b505050565b60006123898473ffffffffffffffffffffffffffffffffffffffff166126f6565b1561251b578373ffffffffffffffffffffffffffffffffffffffff1663150b7a026123b2611cef565b8786866040518563ffffffff167c01000000000000000000000000000000000000000000000000000000000281526004016123f09493929190613d40565b6020604051808303816000875af192505050801561242c57506040513d601f19601f820116820180604052508101906124299190613da1565b60015b6124af573d806000811461245c576040519150601f19603f3d011682016040523d82523d6000602084013e612461565b606091505b506000815114156124a7576040517f08c379a000000000000000000000000000000000000000000000000000000000815260040161249e90613bf1565b60405180910390fd5b805181602001fd5b63150b7a027c0100000000000000000000000000000000000000000000000000000000027bffffffffffffffffffffffffffffffffffffffffffffffffffffffff1916817bffffffffffffffffffffffffffffffffffffffffffffffffffffffff191614915050612520565b600190505b949350505050565b600073ffffffffffffffffffffffffffffffffffffffff168273ffffffffffffffffffffffffffffffffffffffff161415612598576040517f08c379a000000000000000000000000000000000000000000000000000000000815260040161258f90613509565b60405180910390fd5b6125a181611c83565b156125e1576040517f08c379a00000000000000000000000000000000000000000000000000000000081526004016125d890613e1a565b60405180910390fd5b6125ed60008383612308565b6001600360008473ffffffffffffffffffffffffffffffffffffffff1673ffffffffffffffffffffffffffffffffffffffff168152602001908152602001600020600082825461263d9190613b29565b92505081905550816002600083815260200190815260200160002060006101000a81548173ffffffffffffffffffffffffffffffffffffffff021916908373ffffffffffffffffffffffffffffffffffffffff160217905550808273ffffffffffffffffffffffffffffffffffffffff16600073ffffffffffffffffffffffffffffffffffffffff167fddf252ad1be2c89b69c2b068fc378daa952ba7f163c4a11628f55a4df523b3ef60405160405180910390a45050565b600080823b905060008111915050919050565b8280546127159061308d565b90600052602060002090601f016020900481019282612737576000855561277e565b82601f1061275057805160ff191683800117855561277e565b8280016001018555821561277e579182015b8281111561277d578251825591602001919060010190612762565b5b50905061278b91906127b7565b5090565b6040518061022001604052806011905b606081526020019060019003908161279f5790505090565b5b808211156127d05760008160009055506001016127b8565b5090565b6000604051905090565b600080fd5b600080fd5b60007fffffffff0000000000000000000000000000000000000000000000000000000082169050919050565b61281d816127e8565b811461282857600080fd5b50565b60008135905061283a81612814565b92915050565b600060208284031215612856576128556127de565b5b60006128648482850161282b565b91505092915050565b60008115159050919050565b6128828161286d565b82525050565b600060208201905061289d6000830184612879565b92915050565b600081519050919050565b600082825260208201905092915050565b60005b838110156128dd5780820151818401526020810190506128c2565b838111156128ec576000848401525b50505050565b6000601f19601f8301169050919050565b600061290e826128a3565b61291881856128ae565b93506129288185602086016128bf565b612931816128f2565b840191505092915050565b600060208201905081810360008301526129568184612903565b905092915050565b6000819050919050565b6129718161295e565b811461297c57600080fd5b50565b60008135905061298e81612968565b92915050565b6000602082840312156129aa576129a96127de565b5b60006129b88482850161297f565b91505092915050565b600073ffffffffffffffffffffffffffffffffffffffff82169050919050565b60006129ec826129c1565b9050919050565b6129fc816129e1565b82525050565b6000602082019050612a1760008301846129f3565b92915050565b612a26816129e1565b8114612a3157600080fd5b50565b600081359050612a4381612a1d565b92915050565b60008060408385031215612a6057612a5f6127de565b5b6000612a6e85828601612a34565b9250506020612a7f8582860161297f565b9150509250929050565b600080600060608486031215612aa257612aa16127de565b5b6000612ab086828701612a34565b9350506020612ac186828701612a34565b9250506040612ad28682870161297f565b9150509250925092565b600060208284031215612af257612af16127de565b5b6000612b0084828501612a34565b91505092915050565b612b128161295e565b82525050565b6000602082019050612b2d6000830184612b09565b92915050565b600081519050919050565b600082825260208201905092915050565b6000819050602082019050919050565b612b688161295e565b82525050565b6000612b7a8383612b5f565b60208301905092915050565b6000602082019050919050565b6000612b9e82612b33565b612ba88185612b3e565b9350612bb383612b4f565b8060005b83811015612be4578151612bcb8882612b6e565b9750612bd683612b86565b925050600181019050612bb7565b5085935050505092915050565b60006020820190508181036000830152612c0b8184612b93565b905092915050565b60008060408385031215612c2a57612c296127de565b5b6000612c388582860161297f565b9250506020612c4985828601612a34565b9150509250929050565b612c5c8161286d565b8114612c6757600080fd5b50565b600081359050612c7981612c53565b92915050565b60008060408385031215612c9657612c956127de565b5b6000612ca485828601612a34565b9250506020612cb585828601612c6a565b9150509250929050565b600080fd5b600080fd5b7f4e487b7100000000000000000000000000000000000000000000000000000000600052604160045260246000fd5b612d01826128f2565b810181811067ffffffffffffffff82111715612d2057612d1f612cc9565b5b80604052505050565b6000612d336127d4565b9050612d3f8282612cf8565b919050565b600067ffffffffffffffff821115612d5f57612d5e612cc9565b5b612d68826128f2565b9050602081019050919050565b82818337600083830152505050565b6000612d97612d9284612d44565b612d29565b905082815260208101848484011115612db357612db2612cc4565b5b612dbe848285612d75565b509392505050565b600082601f830112612ddb57612dda612cbf565b5b8135612deb848260208601612d84565b91505092915050565b60008060408385031215612e0b57612e0a6127de565b5b6000612e198582860161297f565b925050602083013567ffffffffffffffff811115612e3a57612e396127e3565b5b612e4685828601612dc6565b9150509250929050565b6000819050919050565b6000612e75612e70612e6b846129c1565b612e50565b6129c1565b9050919050565b6000612e8782612e5a565b9050919050565b6000612e9982612e7c565b9050919050565b612ea981612e8e565b82525050565b6000602082019050612ec46000830184612ea0565b92915050565b600067ffffffffffffffff821115612ee557612ee4612cc9565b5b612eee826128f2565b9050602081019050919050565b6000612f0e612f0984612eca565b612d29565b905082815260208101848484011115612f2a57612f29612cc4565b5b612f35848285612d75565b509392505050565b600082601f830112612f5257612f51612cbf565b5b8135612f62848260208601612efb565b91505092915050565b60008060008060808587031215612f8557612f846127de565b5b6000612f9387828801612a34565b9450506020612fa487828801612a34565b9350506040612fb58782880161297f565b925050606085013567ffffffffffffffff811115612fd657612fd56127e3565b5b612fe287828801612f3d565b91505092959194509250565b60006040820190506130036000830185612b09565b81810360208301526130158184612903565b90509392505050565b60008060408385031215613035576130346127de565b5b600061304385828601612a34565b925050602061305485828601612a34565b9150509250929050565b7f4e487b7100000000000000000000000000000000000000000000000000000000600052602260045260246000fd5b600060028204905060018216806130a557607f821691505b602082108114156130b9576130b861305e565b5b50919050565b7f4552433732313a20617070726f76656420717565727920666f72206e6f6e657860008201527f697374656e7420746f6b656e0000000000000000000000000000000000000000602082015250565b600061311b602c836128ae565b9150613126826130bf565b604082019050919050565b6000602082019050818103600083015261314a8161310e565b9050919050565b7f4552433732313a20617070726f76616c20746f2063757272656e74206f776e6560008201527f7200000000000000000000000000000000000000000000000000000000000000602082015250565b60006131ad6021836128ae565b91506131b882613151565b604082019050919050565b600060208201905081810360008301526131dc816131a0565b9050919050565b7f4552433732313a20617070726f76652063616c6c6572206973206e6f74206f7760008201527f6e6572206e6f7220617070726f76656420666f7220616c6c0000000000000000602082015250565b600061323f6038836128ae565b915061324a826131e3565b604082019050919050565b6000602082019050818103600083015261326e81613232565b9050919050565b7f4552433732313a207472616e736665722063616c6c6572206973206e6f74206f60008201527f776e6572206e6f7220617070726f766564000000000000000000000000000000602082015250565b60006132d16031836128ae565b91506132dc82613275565b604082019050919050565b60006020820190508181036000830152613300816132c4565b9050919050565b7f4552433732313a206f776e657220717565727920666f72206e6f6e657869737460008201527f656e7420746f6b656e0000000000000000000000000000000000000000000000602082015250565b60006133636029836128ae565b915061336e82613307565b604082019050919050565b6000602082019050818103600083015261339281613356565b9050919050565b7f4552433732313a2062616c616e636520717565727920666f7220746865207a6560008201527f726f206164647265737300000000000000000000000000000000000000000000602082015250565b60006133f5602a836128ae565b915061340082613399565b604082019050919050565b60006020820190508181036000830152613424816133e8565b9050919050565b7f6973436f6e74726163744f776e65723a2063616c6c6572206973206e6f74207460008201527f686520636f6e7472616374206f776e6572000000000000000000000000000000602082015250565b60006134876031836128ae565b91506134928261342b565b604082019050919050565b600060208201905081810360008301526134b68161347a565b9050919050565b7f4552433732313a206d696e7420746f20746865207a65726f2061646472657373600082015250565b60006134f36020836128ae565b91506134fe826134bd565b602082019050919050565b60006020820190508181036000830152613522816134e6565b9050919050565b7f546f6b656e20616c7265616479206d696e746564000000000000000000000000600082015250565b600061355f6014836128ae565b915061356a82613529565b602082019050919050565b6000602082019050818103600083015261358e81613552565b9050919050565b6000815190506135a481612c53565b92915050565b6000602082840312156135c0576135bf6127de565b5b60006135ce84828501613595565b91505092915050565b7f6d696e743a2074686520686f72736520646f6573206e6f742065786973740000600082015250565b600061360d601e836128ae565b9150613618826135d7565b602082019050919050565b6000602082019050818103600083015261363c81613600565b9050919050565b7f4552433732313a20617070726f766520746f2063616c6c657200000000000000600082015250565b60006136796019836128ae565b915061368482613643565b602082019050919050565b600060208201905081810360008301526136a88161366c565b9050919050565b60006136c26136bd84612d44565b612d29565b9050828152602081018484840111156136de576136dd612cc4565b5b6136e98482856128bf565b509392505050565b600082601f83011261370657613705612cbf565b5b81516137168482602086016136af565b91505092915050565b60008151905061372e81612968565b92915050565b6000806040838503121561374b5761374a6127de565b5b600083015167ffffffffffffffff811115613769576137686127e3565b5b613775858286016136f1565b92505060206137868582860161371f565b9150509250929050565b7f4e487b7100000000000000000000000000000000000000000000000000000000600052603260045260246000fd5b600081905092915050565b60006137d5826128a3565b6137df81856137bf565b93506137ef8185602086016128bf565b80840191505092915050565b6000613807828b6137ca565b9150613813828a6137ca565b915061381f82896137ca565b915061382b82886137ca565b915061383782876137ca565b915061384382866137ca565b915061384f82856137ca565b915061385b82846137ca565b91508190509998505050505050505050565b6000613879828a6137ca565b915061388582896137ca565b915061389182886137ca565b915061389d82876137ca565b91506138a982866137ca565b91506138b582856137ca565b91506138c182846137ca565b915081905098975050505050505050565b60006138de82876137ca565b91506138ea82866137ca565b91506138f682856137ca565b915061390282846137ca565b915081905095945050505050565b7f4552433732313a206f70657261746f7220717565727920666f72206e6f6e657860008201527f697374656e7420746f6b656e0000000000000000000000000000000000000000602082015250565b600061396c602c836128ae565b915061397782613910565b604082019050919050565b6000602082019050818103600083015261399b8161395f565b9050919050565b7f4552433732313a207472616e73666572206f6620746f6b656e2074686174206960008201527f73206e6f74206f776e0000000000000000000000000000000000000000000000602082015250565b60006139fe6029836128ae565b9150613a09826139a2565b604082019050919050565b60006020820190508181036000830152613a2d816139f1565b9050919050565b7f4552433732313a207472616e7366657220746f20746865207a65726f2061646460008201527f7265737300000000000000000000000000000000000000000000000000000000602082015250565b6000613a906024836128ae565b9150613a9b82613a34565b604082019050919050565b60006020820190508181036000830152613abf81613a83565b9050919050565b7f4e487b7100000000000000000000000000000000000000000000000000000000600052601160045260246000fd5b6000613b008261295e565b9150613b0b8361295e565b925082821015613b1e57613b1d613ac6565b5b828203905092915050565b6000613b348261295e565b9150613b3f8361295e565b9250827fffffffffffffffffffffffffffffffffffffffffffffffffffffffffffffffff03821115613b7457613b73613ac6565b5b828201905092915050565b7f4552433732313a207472616e7366657220746f206e6f6e20455243373231526560008201527f63656976657220696d706c656d656e7465720000000000000000000000000000602082015250565b6000613bdb6032836128ae565b9150613be682613b7f565b604082019050919050565b60006020820190508181036000830152613c0a81613bce565b9050919050565b6000613c1c8261295e565b91507fffffffffffffffffffffffffffffffffffffffffffffffffffffffffffffffff821415613c4f57613c4e613ac6565b5b600182019050919050565b7f4e487b7100000000000000000000000000000000000000000000000000000000600052601260045260246000fd5b6000613c948261295e565b9150613c9f8361295e565b925082613caf57613cae613c5a565b5b828204905092915050565b6000613cc58261295e565b9150613cd08361295e565b925082613ce057613cdf613c5a565b5b828206905092915050565b600081519050919050565b600082825260208201905092915050565b6000613d1282613ceb565b613d1c8185613cf6565b9350613d2c8185602086016128bf565b613d35816128f2565b840191505092915050565b6000608082019050613d5560008301876129f3565b613d6260208301866129f3565b613d6f6040830185612b09565b8181036060830152613d818184613d07565b905095945050505050565b600081519050613d9b81612814565b92915050565b600060208284031215613db757613db66127de565b5b6000613dc584828501613d8c565b91505092915050565b7f4552433732313a20746f6b656e20616c7265616479206d696e74656400000000600082015250565b6000613e04601c836128ae565b9150613e0f82613dce565b602082019050919050565b60006020820190508181036000830152613e3381613df7565b905091905056fe3c7465787420783d2231302220793d22313132302220666f6e742d7765696768743d22626f6c642220666f6e742d73697a653d2237656d223e2d313436312034202d31353533203231202d31353739203234202d3338203731202d353920313433202d3635203632202d35203632202d3420373920323820353320313033203530202d312035352031353233206c35203134303920323035202d3136382063323530202d32303520373539202d3631312031303439202d38333820323030202d31353620323135202d31363620323335202d3135332031312038203234322031353520353131203332372032373020313731203530302033323120353133203333332031322031312032322033302032322034322030203239202d343120313436202d31343320343130202d343720313231202d31343420333735202d32313720353635202d373320313930202d31353420343031202d31383020343730202d343320313132202d31343520333830202d3339302031303230202d343320313133202d31313320323935202d31353520343035202d343220313130202d31333520333533202d32303520353430202d373120313837202d31363520343336202d32303920353534202d343520313137202d383120323135202d38312032313720302037202d36322032202d313630202d31337a222f3e3c2f673e293c2f746578743e3c7465787420783d223830302220793d22313330302220666f6e742d73697a653d2237656d223e57696e733a203837372033363620393731203835342032382031343320313920323533202d333520343338202d31313820343037202d35313720373036202d39363020373230202d36392032202d3134372030202d313735202d347a222f3e3c706174682066696c6c3d22233242374137382220643d224d3131303630203835373320632d353735202d3835202d31303030202d323038202d31343035202d343038202d333632202d313739202d363832202d343138202d393434202d373036202d323332202d323535202d333839202d343634202d383736202d31313639202d323031202d323931202d343632202d363632202d343931202d363939202d35202d36202d323436203836202d33373720313434202d33353720313630202d36313720333739202d37373220363531202d31313820323037202d31383220343531202d32343020393039202d323920323334202d353420313830203132342033333520323833206c313430203134332037353020313120633130303620313420313131312032322031313731203933206c3236203331202d3238203820632d3338203130202d323134203334202d333934203533202d333930203431202d353139203631202d38323720313235202d333439203732202d343034203835202d343035203933203020352036332039372031343020323035203736203130382032313320333035203330322034333720343430203634372036353020393233203838342031313634203433322034343320393336203731322031363331203837312031383120343120333934203739203339392037312032202d33203433202d313130203931202d32333620323236202d35393920323631202d36393020353635202d31343835203733202d31393020313439202d33393020313730203c2f746578743e3c7465787420783d2231302220793d22313330302220666f6e742d73697a653d2237656d223e233c6d657461646174613e4372656174656420627920706f747261636520312e31352c207772697474656e2062792050657465722053656c696e67657220323030312d323031373c2f6d657461646174613e3c726563742077696474683d223130302522206865696768743d2231303025222066696c6c3d222344454632463122202f3e3c67207472616e73666f726d3d227472616e736c61746528302e3030303030302c3934362e30303030303029207363616c6528302e3130303030302c2d302e3130303030302922207374726f6b653d226e6f6e65223e3c706174682066696c6c3d22233242374137382220643d224d36393835203934353120632d333233202d3533202d363137202d323537202d373634202d353333202d3735202d313338202d313036202d323337202d313231202d333830202d3430202d33383720313939202d38303920353534202d39383220313832202d383820333434202d31323320353330202d31313320343930203235202d343435203231202d353520313135202d33303220323130202d353530203935202d32343720313835202d34383420323030202d353235203136202d3431203635202d31363920313039202d323833203434202d313135203737202d323135203734202d323234202d37202d3138202d313638202d313236202d343439202d333031202d313532202d3935202d323139202d313332202d323432202d313332202d33372030203339202d3539202d3131303720383539202d35373320343539202d38393720373132202d39333220373238202d3636203330202d313038203236202d313538202d3138202d3339202d3335202d3539202d3836202d3530202d3132382039202d3434203733202d31313020323038202d323138203637202d353320313532202d31323120313839202d313531206c3637202d35342033202d31353532206333202d313236203232202d323331203339202d323332203337202d36202d35202d3631202d323731202d3538202d3237372033202d33203231202d39203432202d3132203231202d3320313533202d323520323933202d353020363839202d3132332031323339202d3139322031383432202d32333220323438202d313720323432202d313520333831202d31313820323133202d31353920343234202d3234352031303137202d34313320343233202d31323020353330202d31363520363735202d32383220313232202d393820323231202d32353420323139202d333434202d36202d313538202d323035202d353139202d343238202d373734202d363237202d373134202d31313635202d31333131202d31343939202d31363632202d323631202d323734202d323836202d333032202d333138202d333635206c2d3230202d333820333820372063323120332036352031352039382032362037372032352034393620323438203837352034363620313632203933203433352032343920363035203334372033393820323239203536322033333920373635203531342036303420353232203933392031303132203130343020313532302034342032323520313820333937202d393320363136202d363420313234202d31353820323531202d33313620343233202d3637203732202d31323120313332202d3131392031333220322030203438203920313033203230203539332031313520313031352032343520313336302034313720313631203831203139342039392033323520313836203135322031303120333437202d31303120343539202d363020313432202d31343520323332202d32363120323737202d3730203237202d323239203332202d333038203130202d313235202d3335202d323638202d313339202d333537202d323539202d323036202d323739202d323134202d363131202d3236202d31303932203638202d31373520323332202d34363920333636202d36353920333232202d34353520393133202d3738302031353938202d383830206c313136202d3137202d3834202d383020632d333430202d333232202d31303932202d363037202d31383738202d373133202d323634202d3336202d323334202d3338202d333330203330202d31373120313233202d33363020323238202d35393020333239202d32373520313231202d39303020333533202d3130333020333831202d313339203331202d333634203333202d3435342036202d313438202d3436202d323530202d313236202d333431202d323636202d313134202d313736202d313530202d333530202d313030202d3439332038202d3233203133202d3433203132202d3435202d3130202d3130202d383532203836202d3131363720313333202d343039203631202d353231203738202d37323520313133203c7376672076657273696f6e3d22312e302220786d6c6e733d22687474703a2f2f7777772e77332e6f72672f323030302f737667222066696c6c3d2223313732353241222077696474683d223132382e303030303030707422206865696768743d223133342e363030303030307074222076696577426f783d2230203020313238302e30303030303020313334362e30303030303022207072657365727665417370656374526174696f3d22784d6964594d6964206d656574223ea264697066735822122070fd2587442ae252c33a94986b4ea2e60399097892d06fd256a0ab1f47e9543964736f6c634300080a0033",
  "immutableReferences": {},
  "source": "// Contract based on [https://docs.openzeppelin.com/contracts/3.x/erc721](https://docs.openzeppelin.com/contracts/3.x/erc721)\n// SPDX-License-Identifier: MIT\npragma solidity >=0.6.0;\n\nimport \"@openzeppelin/contracts/token/ERC721/ERC721.sol\";\nimport \"@openzeppelin/contracts/utils/Counters.sol\";\nimport \"./MetaturfHorseRacingData.sol\";\nimport \"./Base64.sol\";\n\ncontract MetaturfNFT is ERC721 {\n\n    using Counters for Counters.Counter;\n    Counters.Counter private _horseTokenIds;\n \n    MetaturfHorseRacingData public metaturfHorseRacingData;\n\n    // <owner>\n    address private owner; \n \n    struct HorseToken {\n        uint horseid;\n        address owner;\n        string tokenURI;\n    }\n\n    mapping (uint256 => HorseToken) horseToken;\n    mapping (uint256 => uint256) horseidToTokenid;\n\n    uint256[] private tokenList;\n\n   /* \n    * Events\n    */\n    // <LogMint event: horseid arg>\n    event LogMint(uint horseid);\n\n   /* \n    * Modifiers\n    */\n    modifier isContractOwner() {\n      require (msg.sender == owner, \"isContractOwner: caller is not the contract owner\");\n      _;\n    }\n   \n//    modifier isTokenOwner(uint _horseTokenId) {\n//      require (msg.sender == metaturfHorseRacingData.horses[_horseTokenId].owner, \"isTokenOwner: caller is not the token owner\");\n//      _;\n//    }\n    \n    constructor() ERC721(\"Metaturf\", \"MT\") {\n        owner = msg.sender;\n        //_setBaseURI(\"https://ipfs.io/ipfs/\");\n    }\n    \n    function registerMetaturfHorseRacingDataAddress(address _addressOfMetaturfHorseRacingData) public isContractOwner {\n        metaturfHorseRacingData = MetaturfHorseRacingData(_addressOfMetaturfHorseRacingData);\n    }\n\n    function isSetMetaturfHorseRacingDataAddress() public view returns(bool) {\n        if(address(MetaturfHorseRacingData(metaturfHorseRacingData)) == address(0)) return false;\n        return true;\n    }\n\n    function listTokens() public view returns(uint256[] memory) {\n        return tokenList;\n    }\n    function getNumberOfTokens() public view returns (uint256) {\n        return _horseTokenIds.current(); \n    }\n\n    function getHorseNFTInfo(uint256 _horsetokenid) public view returns (uint,string memory) {\n        return (\n            horseToken[_horsetokenid].horseid,\n            horseToken[_horsetokenid].tokenURI\n        );\n    }\n    function horseIsMinted(uint256 _horseid) public view returns(bool) {\n        if (horseidToTokenid[_horseid] == 0) return false;\n        return true;\n    }\n    \n    function mint(uint _horseid, address _to) public returns (uint256) {\n        require(_to != address(0), \"ERC721: mint to the zero address\");\n        //require(!_exists(tokenId), \"ERC721: token already minted\");\n\n        require(horseidToTokenid[_horseid] == 0, \"Token already minted\");\n\n        require(metaturfHorseRacingData.theHorseExists(_horseid), \"mint: the horse does not exist\");\n\n        _horseTokenIds.increment();\n\n        uint256 newHorseTokenId = _horseTokenIds.current();\n\n        horseToken[newHorseTokenId] = HorseToken({\n            horseid: _horseid,\n            owner: _to,\n            tokenURI: \"\"\n        });\n\n        tokenList.push(newHorseTokenId);\n\n        horseidToTokenid[_horseid] = newHorseTokenId;\n\n        //setTokenURI(newHorseId, tokenURI);\n\n        _safeMint(_to, newHorseTokenId);\n        //setTokenURI(newHorseTokenId, tokenURI(newHorseTokenId));\n\n        return newHorseTokenId;\n    }\n    //Anyone can mint\n    function mint_old(uint _horseid, string memory _tokenURI) public isContractOwner returns (uint256) {\n\n        require(horseidToTokenid[_horseid] == 0, \"Token already minted\");\n\n        require(metaturfHorseRacingData.theHorseExists(_horseid), \"mint: the horse does not exist\");\n\n        _horseTokenIds.increment();\n\n        uint256 newHorseTokenId = _horseTokenIds.current();\n\n        horseToken[newHorseTokenId] = HorseToken({\n            horseid: _horseid,\n            owner: owner,\n            tokenURI: _tokenURI\n        });\n\n        horseidToTokenid[_horseid] = newHorseTokenId;\n\n        //setTokenURI(newHorseId, tokenURI);\n\n        _safeMint(owner, newHorseTokenId);\n        //setTokenURI(newHorseTokenId, tokenURI(newHorseTokenId));\n\n        return newHorseTokenId;\n    }\n    \n    /**\n     * @dev Sets `_tokenURI` as the tokenURI of `tokenId`.\n     *\n     * Requirements:\n     *\n     * - `tokenId` must exist.\n     */\n    //function setTokenURI(uint256 tokenId, string memory _tokenURI) internal virtual isContractOwner {\n    //    require(_exists(tokenId), \"ERC721URIStorage: URI set of nonexistent token\");\n        //metaturfHorseRacingData.horses[tokenId].tokenURI = _tokenURI;\n    //}\n    \n    /*function getHorseOverView(uint256 tokenId) public view returns (string memory, uint256, string memory) {\n        return (\n            metaturfHorseRacingData.horses[tokenId].name,\n            metaturfHorseRacingData.horses[tokenId].wins,\n            metaturfHorseRacingData.horses[tokenId].tokenURI\n        );\n    }*/\n    \n    function tokenURI(uint256 tokenId) view override public returns (string memory) {\n        \n        //probar\n        //require(_exists(tokenId), \"ERC721: token already minted\");\n\n        uint256 horseid = horseToken[tokenId].horseid;\n\n        string memory horse_name;\n        uint256 wins;\n        (horse_name,wins) = metaturfHorseRacingData.getHorse(horseid);\n        \n        string[17] memory parts;\n        \n        parts[0] = '<svg version=\"1.0\" xmlns=\"http://www.w3.org/2000/svg\" fill=\"#17252A\" width=\"128.000000pt\" height=\"134.6000000pt\" viewBox=\"0 0 1280.000000 1346.000000\" preserveAspectRatio=\"xMidYMid meet\">';\n        parts[1] = '<metadata>Created by potrace 1.15, written by Peter Selinger 2001-2017</metadata><rect width=\"100%\" height=\"100%\" fill=\"#DEF2F1\" /><g transform=\"translate(0.000000,946.000000) scale(0.100000,-0.100000)\" stroke=\"none\"><path fill=\"#2B7A78\" d=\"M6985 9451 c-323 -53 -617 -257 -764 -533 -75 -138 -106 -237 -121 -380 -40 -387 199 -809 554 -982 182 -88 344 -123 530 -113 490 25 ';\n        parts[2] = '877 366 971 854 28 143 19 253 -35 438 -118 407 -517 706 -960 720 -69 2 -147 0 -175 -4z\"/><path fill=\"#2B7A78\" d=\"M11060 8573 c-575 -85 -1000 -208 -1405 -408 -362 -179 -682 -418 -944 -706 -232 -255 -389 -464 -876 -1169 -201 -291 -462 -662 -491 -699 -5 -6 -246 86 -377 144 -357 160 -617 379 -772 651 -118 207 -182 451 -240 909 -29 234 -54 ';\n        parts[3] = '347 -101 459 -60 142 -145 232 -261 277 -70 27 -229 32 -308 10 -125 -35 -268 -139 -357 -259 -206 -279 -214 -611 -26 -1092 68 -175 232 -469 366 -659 322 -455 913 -780 1598 -880 l116 -17 -84 -80 c-340 -322 -1092 -607 -1878 -713 -264 -36 -234 -38 -330 30 -171 123 -360 228 -590 329 -275 121 -900 353 -1030 381 -139 31 -364 33 -454 6 -148 -46 -250 -126 -341 -266 -114 -176 -150 -350 -100 -493 8 -23 13 -43 12 -45 -10 -10 -852 86 -1167 133 -409 61 -521 78 -725 113 ';\n        parts[4] = '-126 22 -231 39 -232 37 -6 -5 -61 -271 -58 -277 3 -3 21 -9 42 -12 21 -3 153 -25 293 -50 689 -123 1239 -192 1842 -232 248 -17 242 -15 381 -118 213 -159 424 -245 1017 -413 423 -120 530 -165 675 -282 122 -98 221 -254 219 -344 -6 -158 -205 -519 -428 -774 -627 -714 -1165 -1311 -1499 -1662 -261 -274 -286 -302 -318 -365 l-20 -38 38 7 c21 3 65 15 98 26 77 25 496 248 875 466 162 93 435 249 605 347 398 229 562 339 765 514 604 522 939 1012 1040 1520 44 225 18 397 -93 616 -64 124 -158 251 -316 423 -67 72 -121 132 -119 132 2 0 48 9 103 20 593 115 1015 245 1360 417 161 81 194 99 325 186 152 101 ';\n        parts[5] = '180 124 335 283 l140 143 750 11 c1006 14 1111 22 1171 93 l26 31 -28 8 c-38 10 -214 34 -394 53 -390 41 -519 61 -827 125 -349 72 -404 85 -405 93 0 5 63 97 140 205 76 108 213 305 302 437 440 647 650 923 884 1164 432 443 936 712 1631 871 181 41 394 79 399 71 2 -3 43 -110 91 -236 226 -599 261 -690 565 -1485 73 -190 149 -390 170 ';\n        parts[6] = '-445 21 -55 115 -302 210 -550 95 -247 185 -484 200 -525 16 -41 65 -169 109 -283 44 -115 77 -215 74 -224 -7 -18 -168 -126 -449 -301 -152 -95 -219 -132 -242 -132 -37 0 39 -59 -1107 859 -573 459 -897 712 -932 728 -66 30 -108 26 -158 -18 -39 -35 -59 -86 -50 -128 9 -44 73 -110 208 -218 67 -53 152 -121 189 -151 l67 -54 3 -1552 c3 ';\n        parts[7] = '-1461 4 -1553 21 -1579 24 -38 71 -59 143 -65 62 -5 62 -4 79 28 53 103 50 -1 55 1523 l5 1409 205 -168 c250 -205 759 -611 1049 -838 200 -156 215 -166 235 -153 11 8 242 155 511 327 270 171 500 321 513 333 12 11 22 30 22 42 0 29 -41 146 -143 410 -47 121 -144 375 -217 565 -73 190 -154 401 -180 470 -43 112 -145 380 -390 1020 -43 113 -113 295 -155 405 -42 110 -135 353 -205 540 -71 187 -165 436 -209 554 -45 117 -81 215 -81 217 0 7 -62 2 -160 -13z\"/></g>';\n        parts[8] = '<text x=\"10\" y=\"1120\" font-weight=\"bold\" font-size=\"7em\">';\n        parts[9] = horse_name;\n        parts[10] = '</text><text x=\"10\" y=\"1300\" font-size=\"7em\">#';\n        parts[11] = String.toString(tokenId);\n        parts[12] = ' (';\n        parts[13] = String.toString(horseid);\n        parts[14] = ')</text><text x=\"800\" y=\"1300\" font-size=\"7em\">Wins: ';\n        parts[15] = String.toString(wins);\n        parts[16] = '</text></svg>';\n\n        string memory output = string(abi.encodePacked(parts[0], parts[1], parts[2], parts[3], parts[4], parts[5], parts[6], parts[7]));\n        output = string(abi.encodePacked(output, parts[8], parts[9], parts[10], parts[11], parts[12], parts[13]));\n        output = string(abi.encodePacked(output, parts[14], parts[15], parts[16]));\n\n        //string memory json = Base64.encode(string(abi.encodePacked('{\"name\": \"Horse #', String.toString(tokenId), '\", \"description\": \".\", \"image\": \"data:image/svg+xml;base64,', Base64.encode(output), '\"}')));\n        //output = string(abi.encodePacked('data:application/json;base64,', json));\n\n        return output;\n    }\n}\n\n\nlibrary String {\n    bytes16 private constant _HEX_SYMBOLS = \"0123456789abcdef\";\n    /**\n     * @dev Converts a `uint256` to its ASCII `string` decimal representation.\n     */\n    function toString(uint256 value) internal pure returns (string memory) {\n        // Inspired by OraclizeAPI's implementation - MIT licence\n        // https://github.com/oraclize/ethereum-api/blob/b42146b063c7d6ee1358846c198246239e9360e8/oraclizeAPI_0.4.25.sol\n\n        if (value == 0) {\n            return \"0\";\n        }\n        uint256 temp = value;\n        uint256 digits;\n        while (temp != 0) {\n            digits++;\n            temp /= 10;\n        }\n        bytes memory buffer = new bytes(digits);\n        while (value != 0) {\n            digits -= 1;\n            buffer[digits] = bytes1(uint8(48 + uint256(value % 10)));\n            value /= 10;\n        }\n        return string(buffer);\n    }\n\n    /**\n     * @dev Converts a `uint256` to its ASCII `string` hexadecimal representation.\n     */\n    function toHexString(uint256 value) internal pure returns (string memory) {\n        if (value == 0) {\n            return \"0x00\";\n        }\n        uint256 temp = value;\n        uint256 length = 0;\n        while (temp != 0) {\n            length++;\n            temp >>= 8;\n        }\n        return toHexString(value, length);\n    }\n\n    /**\n     * @dev Converts a `uint256` to its ASCII `string` hexadecimal representation with fixed length.\n     */\n    function toHexString(uint256 value, uint256 length) internal pure returns (string memory) {\n        bytes memory buffer = new bytes(2 * length + 2);\n        buffer[0] = \"0\";\n        buffer[1] = \"x\";\n        for (uint256 i = 2 * length + 1; i > 1; --i) {\n            buffer[i] = _HEX_SYMBOLS[value & 0xf];\n            value >>= 4;\n        }\n        require(value == 0, \"Strings: hex length insufficient\");\n        return string(buffer);\n    }\n}",
  "sourcePath": "/Users/dmolina/Consensys/blockchain-developer-bootcamp-final-project/contracts/MetaturfNFT.sol",
  "compiler": {
    "name": "solc",
    "version": "0.8.10+commit.fc410830.Emscripten.clang"
  },
  "schemaVersion": "3.4.3",
  "updatedAt": "2021-11-10T18:51:21.682Z",
  "networkType": "ethereum",
  "devdoc": {
    "kind": "dev",
    "methods": {
      "approve(address,uint256)": {
        "details": "See {IERC721-approve}."
      },
      "balanceOf(address)": {
        "details": "See {IERC721-balanceOf}."
      },
      "getApproved(uint256)": {
        "details": "See {IERC721-getApproved}."
      },
      "isApprovedForAll(address,address)": {
        "details": "See {IERC721-isApprovedForAll}."
      },
      "name()": {
        "details": "See {IERC721Metadata-name}."
      },
      "ownerOf(uint256)": {
        "details": "See {IERC721-ownerOf}."
      },
      "safeTransferFrom(address,address,uint256)": {
        "details": "See {IERC721-safeTransferFrom}."
      },
      "safeTransferFrom(address,address,uint256,bytes)": {
        "details": "See {IERC721-safeTransferFrom}."
      },
      "setApprovalForAll(address,bool)": {
        "details": "See {IERC721-setApprovalForAll}."
      },
      "supportsInterface(bytes4)": {
        "details": "See {IERC165-supportsInterface}."
      },
      "symbol()": {
        "details": "See {IERC721Metadata-symbol}."
      },
      "tokenURI(uint256)": {
        "details": "Sets `_tokenURI` as the tokenURI of `tokenId`. Requirements: - `tokenId` must exist."
      },
      "transferFrom(address,address,uint256)": {
        "details": "See {IERC721-transferFrom}."
      }
    },
    "version": 1
  },
  "userdoc": {
    "kind": "user",
    "methods": {},
    "version": 1
  }
}