{
  "contractName": "MetaturfHorseRacingData",
  "abi": [
    {
      "inputs": [],
      "stateMutability": "nonpayable",
      "type": "constructor"
    },
    {
      "anonymous": false,
      "inputs": [
        {
          "indexed": true,
          "internalType": "bytes32",
          "name": "id",
          "type": "bytes32"
        }
      ],
      "name": "ChainlinkCancelled",
      "type": "event"
    },
    {
      "anonymous": false,
      "inputs": [
        {
          "indexed": true,
          "internalType": "bytes32",
          "name": "id",
          "type": "bytes32"
        }
      ],
      "name": "ChainlinkFulfilled",
      "type": "event"
    },
    {
      "anonymous": false,
      "inputs": [
        {
          "indexed": true,
          "internalType": "bytes32",
          "name": "id",
          "type": "bytes32"
        }
      ],
      "name": "ChainlinkRequested",
      "type": "event"
    },
    {
      "anonymous": false,
      "inputs": [
        {
          "indexed": false,
          "internalType": "string",
          "name": "horsedata",
          "type": "string"
        }
      ],
      "name": "LogFulfillHorseData",
      "type": "event"
    },
    {
      "anonymous": false,
      "inputs": [
        {
          "indexed": false,
          "internalType": "string",
          "name": "winner",
          "type": "string"
        }
      ],
      "name": "LogFulfillRaceWinner",
      "type": "event"
    },
    {
      "anonymous": false,
      "inputs": [
        {
          "indexed": false,
          "internalType": "uint256",
          "name": "horseid",
          "type": "uint256"
        },
        {
          "indexed": false,
          "internalType": "string",
          "name": "name",
          "type": "string"
        },
        {
          "indexed": false,
          "internalType": "uint256",
          "name": "wins",
          "type": "uint256"
        }
      ],
      "name": "LogSetHorse",
      "type": "event"
    },
    {
      "anonymous": false,
      "inputs": [
        {
          "indexed": false,
          "internalType": "uint256",
          "name": "raceid",
          "type": "uint256"
        },
        {
          "indexed": false,
          "internalType": "string",
          "name": "racecourse",
          "type": "string"
        },
        {
          "indexed": false,
          "internalType": "string",
          "name": "date",
          "type": "string"
        },
        {
          "indexed": false,
          "internalType": "string",
          "name": "time",
          "type": "string"
        },
        {
          "indexed": false,
          "internalType": "uint256",
          "name": "winnerhorseid",
          "type": "uint256"
        }
      ],
      "name": "LogSetRace",
      "type": "event"
    },
    {
      "inputs": [
        {
          "internalType": "uint256",
          "name": "",
          "type": "uint256"
        }
      ],
      "name": "horses",
      "outputs": [
        {
          "internalType": "uint256",
          "name": "horseid",
          "type": "uint256"
        },
        {
          "internalType": "string",
          "name": "name",
          "type": "string"
        },
        {
          "internalType": "uint256",
          "name": "wins",
          "type": "uint256"
        }
      ],
      "stateMutability": "view",
      "type": "function"
    },
    {
      "inputs": [],
      "name": "owner",
      "outputs": [
        {
          "internalType": "address",
          "name": "",
          "type": "address"
        }
      ],
      "stateMutability": "view",
      "type": "function"
    },
    {
      "inputs": [
        {
          "internalType": "uint256",
          "name": "",
          "type": "uint256"
        }
      ],
      "name": "races",
      "outputs": [
        {
          "internalType": "uint256",
          "name": "raceid",
          "type": "uint256"
        },
        {
          "internalType": "string",
          "name": "racecourse",
          "type": "string"
        },
        {
          "internalType": "string",
          "name": "date",
          "type": "string"
        },
        {
          "internalType": "string",
          "name": "time",
          "type": "string"
        },
        {
          "internalType": "uint256",
          "name": "winnerhorseid",
          "type": "uint256"
        }
      ],
      "stateMutability": "view",
      "type": "function"
    },
    {
      "inputs": [],
      "name": "temp_winner",
      "outputs": [
        {
          "internalType": "string",
          "name": "",
          "type": "string"
        }
      ],
      "stateMutability": "view",
      "type": "function"
    },
    {
      "inputs": [
        {
          "internalType": "uint256",
          "name": "_raceid",
          "type": "uint256"
        }
      ],
      "name": "requestOracleRaceWinner",
      "outputs": [
        {
          "internalType": "bytes32",
          "name": "requestId",
          "type": "bytes32"
        }
      ],
      "stateMutability": "nonpayable",
      "type": "function"
    },
    {
      "inputs": [],
      "name": "get_temp_winner",
      "outputs": [
        {
          "internalType": "string",
          "name": "",
          "type": "string"
        }
      ],
      "stateMutability": "view",
      "type": "function"
    },
    {
      "inputs": [
        {
          "internalType": "bytes32",
          "name": "_requestId",
          "type": "bytes32"
        },
        {
          "internalType": "bytes32",
          "name": "_winner",
          "type": "bytes32"
        }
      ],
      "name": "fulfillRaceWinner",
      "outputs": [],
      "stateMutability": "nonpayable",
      "type": "function"
    },
    {
      "inputs": [
        {
          "internalType": "uint256",
          "name": "_horseid",
          "type": "uint256"
        }
      ],
      "name": "requestOracleHorseData",
      "outputs": [
        {
          "internalType": "bytes32",
          "name": "requestId",
          "type": "bytes32"
        }
      ],
      "stateMutability": "nonpayable",
      "type": "function"
    },
    {
      "inputs": [
        {
          "internalType": "bytes32",
          "name": "_requestId",
          "type": "bytes32"
        },
        {
          "internalType": "bytes32",
          "name": "_horsedata",
          "type": "bytes32"
        }
      ],
      "name": "fulfillHorseData",
      "outputs": [],
      "stateMutability": "nonpayable",
      "type": "function"
    },
    {
      "inputs": [],
      "name": "withdrawLink",
      "outputs": [],
      "stateMutability": "nonpayable",
      "type": "function"
    },
    {
      "inputs": [
        {
          "internalType": "uint256",
          "name": "_horseid",
          "type": "uint256"
        }
      ],
      "name": "theHorseExists",
      "outputs": [
        {
          "internalType": "bool",
          "name": "",
          "type": "bool"
        }
      ],
      "stateMutability": "view",
      "type": "function"
    },
    {
      "inputs": [
        {
          "internalType": "uint256",
          "name": "_horseid",
          "type": "uint256"
        },
        {
          "internalType": "string",
          "name": "_name",
          "type": "string"
        },
        {
          "internalType": "uint256",
          "name": "_wins",
          "type": "uint256"
        }
      ],
      "name": "setHorse",
      "outputs": [],
      "stateMutability": "nonpayable",
      "type": "function"
    },
    {
      "inputs": [
        {
          "internalType": "string",
          "name": "_csvhorsedata",
          "type": "string"
        }
      ],
      "name": "setHorseFromCSV",
      "outputs": [],
      "stateMutability": "nonpayable",
      "type": "function"
    },
    {
      "inputs": [
        {
          "internalType": "uint256",
          "name": "_horseid",
          "type": "uint256"
        }
      ],
      "name": "getHorse",
      "outputs": [
        {
          "internalType": "string",
          "name": "",
          "type": "string"
        },
        {
          "internalType": "uint256",
          "name": "",
          "type": "uint256"
        }
      ],
      "stateMutability": "view",
      "type": "function"
    },
    {
      "inputs": [],
      "name": "listHorses",
      "outputs": [
        {
          "internalType": "uint256[]",
          "name": "",
          "type": "uint256[]"
        }
      ],
      "stateMutability": "view",
      "type": "function"
    },
    {
      "inputs": [
        {
          "internalType": "uint256",
          "name": "_horseid",
          "type": "uint256"
        },
        {
          "internalType": "uint256",
          "name": "_wins",
          "type": "uint256"
        }
      ],
      "name": "updateHorseWins",
      "outputs": [],
      "stateMutability": "nonpayable",
      "type": "function"
    },
    {
      "inputs": [
        {
          "internalType": "uint256",
          "name": "_raceid",
          "type": "uint256"
        },
        {
          "internalType": "string",
          "name": "_racecourse",
          "type": "string"
        },
        {
          "internalType": "string",
          "name": "_date",
          "type": "string"
        },
        {
          "internalType": "string",
          "name": "_time",
          "type": "string"
        },
        {
          "internalType": "uint256",
          "name": "_winnerhorseid",
          "type": "uint256"
        }
      ],
      "name": "setRace",
      "outputs": [],
      "stateMutability": "nonpayable",
      "type": "function"
    },
    {
      "inputs": [
        {
          "internalType": "uint256",
          "name": "_raceid",
          "type": "uint256"
        }
      ],
      "name": "getRace",
      "outputs": [
        {
          "internalType": "string",
          "name": "",
          "type": "string"
        },
        {
          "internalType": "string",
          "name": "",
          "type": "string"
        },
        {
          "internalType": "string",
          "name": "",
          "type": "string"
        },
        {
          "internalType": "uint256",
          "name": "",
          "type": "uint256"
        }
      ],
      "stateMutability": "view",
      "type": "function"
    },
    {
      "inputs": [],
      "name": "listRaces",
      "outputs": [
        {
          "internalType": "uint256[]",
          "name": "",
          "type": "uint256[]"
        }
      ],
      "stateMutability": "view",
      "type": "function"
    }
  ],
  "bytecode": "0x608060405260016004553480156200001657600080fd5b5033600660006101000a81548173ffffffffffffffffffffffffffffffffffffffff021916908373ffffffffffffffffffffffffffffffffffffffff16021790555060405180602001604052806000815250600990805190602001906200007f9291906200028f565b50620000996200018e640100000000026401000000009004565b739dd3298dad96648e7fdf5632b9813d22bbb3eb61600a60006101000a81548173ffffffffffffffffffffffffffffffffffffffff021916908373ffffffffffffffffffffffffffffffffffffffff1602179055507f3964616137663531333061623434333961363364656534326131356431313961600b81905550670de0b6b3a7640000600c81905550604051806080016040528060488152602001620050fb6048913960079080519060200190620001559291906200028f565b506040518060800160405280604b8152602001620050b0604b913960089080519060200190620001879291906200028f565b5062000440565b6200024973c89bd4e1632d3a43cb03aaad5262cbe4038bc57173ffffffffffffffffffffffffffffffffffffffff166338cc48316040518163ffffffff167c0100000000000000000000000000000000000000000000000000000000028152600401602060405180830381865afa1580156200020e573d6000803e3d6000fd5b505050506040513d601f19601f82011682018060405250810190620002349190620003a9565b6200024b640100000000026401000000009004565b565b80600260006101000a81548173ffffffffffffffffffffffffffffffffffffffff021916908373ffffffffffffffffffffffffffffffffffffffff16021790555050565b8280546200029d906200040a565b90600052602060002090601f016020900481019282620002c157600085556200030d565b82601f10620002dc57805160ff19168380011785556200030d565b828001600101855582156200030d579182015b828111156200030c578251825591602001919060010190620002ef565b5b5090506200031c919062000320565b5090565b5b808211156200033b57600081600090555060010162000321565b5090565b600080fd5b600073ffffffffffffffffffffffffffffffffffffffff82169050919050565b6000620003718262000344565b9050919050565b620003838162000364565b81146200038f57600080fd5b50565b600081519050620003a38162000378565b92915050565b600060208284031215620003c257620003c16200033f565b5b6000620003d28482850162000392565b91505092915050565b7f4e487b7100000000000000000000000000000000000000000000000000000000600052602260045260246000fd5b600060028204905060018216806200042357607f821691505b602082108114156200043a5762000439620003db565b5b50919050565b614c6080620004506000396000f3fe608060405234801561001057600080fd5b506004361061013e576000357c0100000000000000000000000000000000000000000000000000000000900480638da5cb5b116100ca578063c5215ab71161008e578063c5215ab714610341578063d1c5d8211461035f578063d42318af1461037d578063e82ed9b414610399578063f81bb2f2146103c95761013e565b80638da5cb5b146102ad5780638dc654a2146102cb5780638f8b5cde146102d55780639bfb69bd14610307578063add57295146103255761013e565b806330adf7e61161011157806330adf7e6146101f45780634e119023146102105780634f57641c1461022c5780636d2e848a1461025d5780637bbc469e146102795761013e565b806304d8a67e146101435780630bc105a2146101735780630d71aba5146101a3578063284dfdad146101d6575b600080fd5b61015d600480360381019061015891906136d8565b6103e5565b60405161016a919061371e565b60405180910390f35b61018d600480360381019061018891906136d8565b61061e565b60405161019a919061371e565b60405180910390f35b6101bd60048036038101906101b891906136d8565b610857565b6040516101cd94939291906137e1565b60405180910390f35b6101de610b2d565b6040516101eb919061383b565b60405180910390f35b61020e60048036038101906102099190613992565b610bbb565b005b61022a600480360381019061022591906139db565b611014565b005b610246600480360381019061024191906136d8565b611341565b604051610254929190613aaa565b60405180910390f35b61027760048036038101906102729190613b06565b6114ca565b005b610293600480360381019061028e91906136d8565b6116ca565b6040516102a4959493929190613b46565b60405180910390f35b6102b5611898565b6040516102c29190613bef565b60405180910390f35b6102d36118be565b005b6102ef60048036038101906102ea91906136d8565b611a3b565b6040516102fe93929190613c0a565b60405180910390f35b61030f611aed565b60405161031c9190613d06565b60405180910390f35b61033f600480360381019061033a9190613d28565b611b45565b005b610349611d13565b6040516103569190613d06565b60405180910390f35b610367611d6b565b604051610374919061383b565b60405180910390f35b61039760048036038101906103929190613b06565b611dfd565b005b6103b360048036038101906103ae91906136d8565b612054565b6040516103c09190613d83565b60405180910390f35b6103e360048036038101906103de9190613d9e565b612087565b005b6000600660009054906101000a900473ffffffffffffffffffffffffffffffffffffffff1673ffffffffffffffffffffffffffffffffffffffff163373ffffffffffffffffffffffffffffffffffffffff1614610477576040517f08c379a000000000000000000000000000000000000000000000000000000000815260040161046e90613e7f565b60405180910390fd5b60006104a9600b543063d42318af7c0100000000000000000000000000000000000000000000000000000000026122a5565b905060006104b6846122d6565b905060006040518060400160405280600c81526020017f26666f726d61743d6a736f6e0000000000000000000000000000000000000000815250905060006007838360405160200161050a93929190613fd0565b60405160208183030381529060405290506105656040518060400160405280600381526020017f6765740000000000000000000000000000000000000000000000000000000000815250828661250f9092919063ffffffff16565b6105e46040518060400160405280600481526020017f70617468000000000000000000000000000000000000000000000000000000008152506040518060400160405280600b81526020017f646174612e77696e6e65720000000000000000000000000000000000000000008152508661250f9092919063ffffffff16565b610613600a60009054906101000a900473ffffffffffffffffffffffffffffffffffffffff1685600c54612542565b945050505050919050565b6000600660009054906101000a900473ffffffffffffffffffffffffffffffffffffffff1673ffffffffffffffffffffffffffffffffffffffff163373ffffffffffffffffffffffffffffffffffffffff16146106b0576040517f08c379a00000000000000000000000000000000000000000000000000000000081526004016106a790613e7f565b60405180910390fd5b60006106e2600b5430636d2e848a7c0100000000000000000000000000000000000000000000000000000000026122a5565b905060006106ef846122d6565b905060006040518060400160405280600c81526020017f26666f726d61743d6a736f6e0000000000000000000000000000000000000000815250905060006008838360405160200161074393929190613fd0565b604051602081830303815290604052905061079e6040518060400160405280600381526020017f6765740000000000000000000000000000000000000000000000000000000000815250828661250f9092919063ffffffff16565b61081d6040518060400160405280600481526020017f70617468000000000000000000000000000000000000000000000000000000008152506040518060400160405280600481526020017f64617461000000000000000000000000000000000000000000000000000000008152508661250f9092919063ffffffff16565b61084c600a60009054906101000a900473ffffffffffffffffffffffffffffffffffffffff1685600c54612542565b945050505050919050565b60608060606000846001806108c4576000600d600084815260200190815260200160002060000154146108bf576040517f08c379a00000000000000000000000000000000000000000000000000000000081526004016108b69061404d565b60405180910390fd5b61091f565b6000600d600084815260200190815260200160002060000154141561091e576040517f08c379a0000000000000000000000000000000000000000000000000000000008152600401610915906140b9565b60405180910390fd5b5b600d6000888152602001908152602001600020600101600d6000898152602001908152602001600020600201600d60008a8152602001908152602001600020600301600d60008b81526020019081526020016000206004015483805461098490613ece565b80601f01602080910402602001604051908101604052809291908181526020018280546109b090613ece565b80156109fd5780601f106109d2576101008083540402835291602001916109fd565b820191906000526020600020905b8154815290600101906020018083116109e057829003601f168201915b50505050509350828054610a1090613ece565b80601f0160208091040260200160405190810160405280929190818152602001828054610a3c90613ece565b8015610a895780601f10610a5e57610100808354040283529160200191610a89565b820191906000526020600020905b815481529060010190602001808311610a6c57829003601f168201915b50505050509250818054610a9c90613ece565b80601f0160208091040260200160405190810160405280929190818152602001828054610ac890613ece565b8015610b155780601f10610aea57610100808354040283529160200191610b15565b820191906000526020600020905b815481529060010190602001808311610af857829003601f168201915b50505050509150955095509550955050509193509193565b60098054610b3a90613ece565b80601f0160208091040260200160405190810160405280929190818152602001828054610b6690613ece565b8015610bb35780601f10610b8857610100808354040283529160200191610bb3565b820191906000526020600020905b815481529060010190602001808311610b9657829003601f168201915b505050505081565b600660009054906101000a900473ffffffffffffffffffffffffffffffffffffffff1673ffffffffffffffffffffffffffffffffffffffff163373ffffffffffffffffffffffffffffffffffffffff161480610c645750600a60009054906101000a900473ffffffffffffffffffffffffffffffffffffffff1673ffffffffffffffffffffffffffffffffffffffff163373ffffffffffffffffffffffffffffffffffffffff16145b610ca3576040517f08c379a0000000000000000000000000000000000000000000000000000000008152600401610c9a9061414b565b60405180910390fd5b6000610cae8261257e565b90506000610cf06040518060400160405280600181526020017f2c0000000000000000000000000000000000000000000000000000000000000081525061257e565b905060006001610d0983856125ac90919063ffffffff16565b610d13919061419a565b67ffffffffffffffff811115610d2c57610d2b613867565b5b604051908082528060200260200182016040528015610d5f57816020015b6060815260200190600190039081610d4a5790505b50905060005b8151811015610dba57610d89610d84848661265490919063ffffffff16565b61266e565b828281518110610d9c57610d9b6141f0565b5b60200260200101819052508080610db29061421f565b915050610d65565b506003815114610dff576040517f08c379a0000000000000000000000000000000000000000000000000000000008152600401610df6906142da565b60405180910390fd5b6000610e2582600081518110610e1857610e176141f0565b5b60200260200101516126ea565b90506000600e6000838152602001908152602001600020600001541415610f1457600f819080600181540180825580915050600190039060005260206000200160009091909190915055604051806060016040528082815260200183600181518110610e9457610e936141f0565b5b60200260200101518152602001610ec584600281518110610eb857610eb76141f0565b5b60200260200101516126ea565b815250600e6000838152602001908152602001600020600082015181600001556020820151816001019080519060200190610f0192919061354a565b5060408201518160020155905050610f94565b610f3882600281518110610f2b57610f2a6141f0565b5b60200260200101516126ea565b600e60008381526020019081526020016000206002015414610f9357610f7882600281518110610f6b57610f6a6141f0565b5b60200260200101516126ea565b600e6000838152602001908152602001600020600201819055505b5b7f2bd2fe2c2a206f4e3cb61075257bfd732ee8cb5ef95fbfc15b770c5cd88944be8183600181518110610fca57610fc96141f0565b5b6020026020010151610ff685600281518110610fe957610fe86141f0565b5b60200260200101516126ea565b60405161100593929190613c0a565b60405180910390a15050505050565b600660009054906101000a900473ffffffffffffffffffffffffffffffffffffffff1673ffffffffffffffffffffffffffffffffffffffff163373ffffffffffffffffffffffffffffffffffffffff16146110a4576040517f08c379a000000000000000000000000000000000000000000000000000000000815260040161109b90613e7f565b60405180910390fd5b8060018061110a576000600e60008481526020019081526020016000206000015414611105576040517f08c379a00000000000000000000000000000000000000000000000000000000081526004016110fc9061436c565b60405180910390fd5b611165565b6000600e6000848152602001908152602001600020600001541415611164576040517f08c379a000000000000000000000000000000000000000000000000000000000815260040161115b906143d8565b60405180910390fd5b5b866000806111cb576000600d600084815260200190815260200160002060000154146111c6576040517f08c379a00000000000000000000000000000000000000000000000000000000081526004016111bd9061404d565b60405180910390fd5b611226565b6000600d6000848152602001908152602001600020600001541415611225576040517f08c379a000000000000000000000000000000000000000000000000000000000815260040161121c906140b9565b60405180910390fd5b5b60108990806001815401808255809150506001900390600052602060002001600090919091909150556040518060a001604052808a815260200189815260200188815260200187815260200186815250600d60008b81526020019081526020016000206000820151816000015560208201518160010190805190602001906112af92919061354a565b5060408201518160020190805190602001906112cc92919061354a565b5060608201518160030190805190602001906112e992919061354a565b50608082015181600401559050507ff54fa781c5b161ed96a4baecc14e27d1e9d671a94b3932b43d76bbe19618f791898989898960405161132e959493929190613b46565b60405180910390a1505050505050505050565b60606000826001806113ab576000600e600084815260200190815260200160002060000154146113a6576040517f08c379a000000000000000000000000000000000000000000000000000000000815260040161139d9061436c565b60405180910390fd5b611406565b6000600e6000848152602001908152602001600020600001541415611405576040517f08c379a00000000000000000000000000000000000000000000000000000000081526004016113fc906143d8565b60405180910390fd5b5b600e6000868152602001908152602001600020600101600e60008781526020019081526020016000206002015481805461143f90613ece565b80601f016020809104026020016040519081016040528092919081815260200182805461146b90613ece565b80156114b85780601f1061148d576101008083540402835291602001916114b8565b820191906000526020600020905b81548152906001019060200180831161149b57829003601f168201915b50505050509150935093505050915091565b600660009054906101000a900473ffffffffffffffffffffffffffffffffffffffff1673ffffffffffffffffffffffffffffffffffffffff163373ffffffffffffffffffffffffffffffffffffffff1614806115735750600a60009054906101000a900473ffffffffffffffffffffffffffffffffffffffff1673ffffffffffffffffffffffffffffffffffffffff163373ffffffffffffffffffffffffffffffffffffffff16145b6115b2576040517f08c379a00000000000000000000000000000000000000000000000000000000081526004016115a99061414b565b60405180910390fd5b816005600082815260200190815260200160002060009054906101000a900473ffffffffffffffffffffffffffffffffffffffff1673ffffffffffffffffffffffffffffffffffffffff163373ffffffffffffffffffffffffffffffffffffffff1614611654576040517f08c379a000000000000000000000000000000000000000000000000000000000815260040161164b9061446a565b60405180910390fd5b6005600082815260200190815260200160002060006101000a81549073ffffffffffffffffffffffffffffffffffffffff0219169055807f7cc135e0cebb02c3480ae5d74d377283180a2601f8f644edf7987b009316c63a60405160405180910390a260006116c2836128df565b905050505050565b600d6020528060005260406000206000915090508060000154908060010180546116f390613ece565b80601f016020809104026020016040519081016040528092919081815260200182805461171f90613ece565b801561176c5780601f106117415761010080835404028352916020019161176c565b820191906000526020600020905b81548152906001019060200180831161174f57829003601f168201915b50505050509080600201805461178190613ece565b80601f01602080910402602001604051908101604052809291908181526020018280546117ad90613ece565b80156117fa5780601f106117cf576101008083540402835291602001916117fa565b820191906000526020600020905b8154815290600101906020018083116117dd57829003601f168201915b50505050509080600301805461180f90613ece565b80601f016020809104026020016040519081016040528092919081815260200182805461183b90613ece565b80156118885780601f1061185d57610100808354040283529160200191611888565b820191906000526020600020905b81548152906001019060200180831161186b57829003601f168201915b5050505050908060040154905085565b600660009054906101000a900473ffffffffffffffffffffffffffffffffffffffff1681565b60006118c8612b15565b90508073ffffffffffffffffffffffffffffffffffffffff1663a9059cbb338373ffffffffffffffffffffffffffffffffffffffff166370a08231306040518263ffffffff167c010000000000000000000000000000000000000000000000000000000002815260040161193c9190613bef565b602060405180830381865afa158015611959573d6000803e3d6000fd5b505050506040513d601f19601f8201168201806040525081019061197d919061449f565b6040518363ffffffff167c01000000000000000000000000000000000000000000000000000000000281526004016119b69291906144cc565b6020604051808303816000875af11580156119d5573d6000803e3d6000fd5b505050506040513d601f19601f820116820180604052508101906119f99190614521565b611a38576040517f08c379a0000000000000000000000000000000000000000000000000000000008152600401611a2f9061459a565b60405180910390fd5b50565b600e602052806000526040600020600091509050806000015490806001018054611a6490613ece565b80601f0160208091040260200160405190810160405280929190818152602001828054611a9090613ece565b8015611add5780601f10611ab257610100808354040283529160200191611add565b820191906000526020600020905b815481529060010190602001808311611ac057829003601f168201915b5050505050908060020154905083565b6060600f805480602002602001604051908101604052809291908181526020018280548015611b3b57602002820191906000526020600020905b815481526020019060010190808311611b27575b5050505050905090565b600660009054906101000a900473ffffffffffffffffffffffffffffffffffffffff1673ffffffffffffffffffffffffffffffffffffffff163373ffffffffffffffffffffffffffffffffffffffff1614611bd5576040517f08c379a0000000000000000000000000000000000000000000000000000000008152600401611bcc90613e7f565b60405180910390fd5b81600180611c3b576000600e60008481526020019081526020016000206000015414611c36576040517f08c379a0000000000000000000000000000000000000000000000000000000008152600401611c2d9061436c565b60405180910390fd5b611c96565b6000600e6000848152602001908152602001600020600001541415611c95576040517f08c379a0000000000000000000000000000000000000000000000000000000008152600401611c8c906143d8565b60405180910390fd5b5b838380600e60008481526020019081526020016000206002015410611cf0576040517f08c379a0000000000000000000000000000000000000000000000000000000008152600401611ce79061462c565b60405180910390fd5b84600e600088815260200190815260200160002060020181905550505050505050565b60606010805480602002602001604051908101604052809291908181526020018280548015611d6157602002820191906000526020600020905b815481526020019060010190808311611d4d575b5050505050905090565b606060098054611d7a90613ece565b80601f0160208091040260200160405190810160405280929190818152602001828054611da690613ece565b8015611df35780601f10611dc857610100808354040283529160200191611df3565b820191906000526020600020905b815481529060010190602001808311611dd657829003601f168201915b5050505050905090565b600660009054906101000a900473ffffffffffffffffffffffffffffffffffffffff1673ffffffffffffffffffffffffffffffffffffffff163373ffffffffffffffffffffffffffffffffffffffff161480611ea65750600a60009054906101000a900473ffffffffffffffffffffffffffffffffffffffff1673ffffffffffffffffffffffffffffffffffffffff163373ffffffffffffffffffffffffffffffffffffffff16145b611ee5576040517f08c379a0000000000000000000000000000000000000000000000000000000008152600401611edc9061414b565b60405180910390fd5b816005600082815260200190815260200160002060009054906101000a900473ffffffffffffffffffffffffffffffffffffffff1673ffffffffffffffffffffffffffffffffffffffff163373ffffffffffffffffffffffffffffffffffffffff1614611f87576040517f08c379a0000000000000000000000000000000000000000000000000000000008152600401611f7e9061446a565b60405180910390fd5b6005600082815260200190815260200160002060006101000a81549073ffffffffffffffffffffffffffffffffffffffff0219169055807f7cc135e0cebb02c3480ae5d74d377283180a2601f8f644edf7987b009316c63a60405160405180910390a26000611ff5836128df565b9050806009908051906020019061200d92919061354a565b5061201781610bbb565b7fb55e101ef840e2e849a72ca9f3d71ac6790345ff99900a9dcef58d4cf3dd037781604051612046919061383b565b60405180910390a150505050565b600080600e600084815260200190815260200160002060000154141561207d5760009050612082565b600190505b919050565b600660009054906101000a900473ffffffffffffffffffffffffffffffffffffffff1673ffffffffffffffffffffffffffffffffffffffff163373ffffffffffffffffffffffffffffffffffffffff1614612117576040517f08c379a000000000000000000000000000000000000000000000000000000000815260040161210e90613e7f565b60405180910390fd5b8260008061217d576000600e60008481526020019081526020016000206000015414612178576040517f08c379a000000000000000000000000000000000000000000000000000000000815260040161216f9061436c565b60405180910390fd5b6121d8565b6000600e60008481526020019081526020016000206000015414156121d7576040517f08c379a00000000000000000000000000000000000000000000000000000000081526004016121ce906143d8565b60405180910390fd5b5b600f859080600181540180825580915050600190039060005260206000200160009091909190915055604051806060016040528086815260200185815260200184815250600e600087815260200190815260200160002060008201518160000155602082015181600101908051906020019061225592919061354a565b50604082015181600201559050507f2bd2fe2c2a206f4e3cb61075257bfd732ee8cb5ef95fbfc15b770c5cd88944be85858560405161229693929190613c0a565b60405180910390a15050505050565b6122ad6135d0565b6122b56135d0565b6122cc85858584612b3f909392919063ffffffff16565b9150509392505050565b606060006064905060008167ffffffffffffffff8111156122fa576122f9613867565b5b6040519080825280601f01601f19166020018201604052801561232c5781602001600182028036833780820191505090505b50905060005b600085146123dd576000600a86612349919061467b565b9050600a8661235891906146ac565b9550806030612367919061419a565b7f0100000000000000000000000000000000000000000000000000000000000000028383806123959061421f565b9450815181106123a8576123a76141f0565b5b60200101907effffffffffffffffffffffffffffffffffffffffffffffffffffffffffffff1916908160001a90535050612332565b60008167ffffffffffffffff8111156123f9576123f8613867565b5b6040519080825280601f01601f19166020018201604052801561242b5781602001600182028036833780820191505090505b50905060005b8281101561250257838160018561244891906146dd565b61245291906146dd565b81518110612463576124626141f0565b5b60200101517f010000000000000000000000000000000000000000000000000000000000000090047f0100000000000000000000000000000000000000000000000000000000000000028282815181106124c0576124bf6141f0565b5b60200101907effffffffffffffffffffffffffffffffffffffffffffffffffffffffffffff1916908160001a90535080806124fa9061421f565b915050612431565b5080945050505050919050565b612526828460800151612bef90919063ffffffff16565b61253d818460800151612bef90919063ffffffff16565b505050565b6000612575848484600163404299467c010000000000000000000000000000000000000000000000000000000002612c14565b90509392505050565b61258661363d565b600060208301905060405180604001604052808451815260200182815250915050919050565b60008082600001516125d08560000151866020015186600001518760200151612e89565b6125da919061419a565b90505b836000015184602001516125f1919061419a565b811161264d5781806126029061421f565b925050826000015161263c85602001518361261d91906146dd565b866000015161262c91906146dd565b8386600001518760200151612e89565b612646919061419a565b90506125dd565b5092915050565b61265c61363d565b612667838383612fca565b5092915050565b60606000826000015167ffffffffffffffff8111156126905761268f613867565b5b6040519080825280601f01601f1916602001820160405280156126c25781602001600182028036833780820191505090505b50905060006020820190506126e08185602001518660000151613095565b8192505050919050565b6000808290506000805b82518110156128d4576030838281518110612712576127116141f0565b5b60200101517f010000000000000000000000000000000000000000000000000000000000000090047f0100000000000000000000000000000000000000000000000000000000000000027f0100000000000000000000000000000000000000000000000000000000000000900460ff1610158015612813575060398382815181106127a05761279f6141f0565b5b60200101517f010000000000000000000000000000000000000000000000000000000000000090047f0100000000000000000000000000000000000000000000000000000000000000027f0100000000000000000000000000000000000000000000000000000000000000900460ff1611155b156128c157603083828151811061282d5761282c6141f0565b5b60200101517f010000000000000000000000000000000000000000000000000000000000000090047f0100000000000000000000000000000000000000000000000000000000000000027f010000000000000000000000000000000000000000000000000000000000000090046128a4919061471e565b60ff16600a836128b49190614752565b6128be919061419a565b91505b80806128cc9061421f565b9150506126f4565b508092505050919050565b606060005b60208160ff16108015612974575060007f010000000000000000000000000000000000000000000000000000000000000002838260ff166020811061292c5761292b6141f0565b5b1a7f0100000000000000000000000000000000000000000000000000000000000000027effffffffffffffffffffffffffffffffffffffffffffffffffffffffffffff191614155b1561298c578080612984906147ac565b9150506128e4565b60008160ff1667ffffffffffffffff8111156129ab576129aa613867565b5b6040519080825280601f01601f1916602001820160405280156129dd5781602001600182028036833780820191505090505b509050600091505b60208260ff16108015612a75575060007f010000000000000000000000000000000000000000000000000000000000000002848360ff1660208110612a2d57612a2c6141f0565b5b1a7f0100000000000000000000000000000000000000000000000000000000000000027effffffffffffffffffffffffffffffffffffffffffffffffffffffffffffff191614155b15612b0b57838260ff1660208110612a9057612a8f6141f0565b5b1a7f010000000000000000000000000000000000000000000000000000000000000002818360ff1681518110612ac957612ac86141f0565b5b60200101907effffffffffffffffffffffffffffffffffffffffffffffffffffffffffffff1916908160001a9053508180612b03906147ac565b9250506129e5565b8092505050919050565b6000600260009054906101000a900473ffffffffffffffffffffffffffffffffffffffff16905090565b612b476135d0565b612b578560800151610100613114565b508385600001818152505082856020019073ffffffffffffffffffffffffffffffffffffffff16908173ffffffffffffffffffffffffffffffffffffffff16815250508185604001907bffffffffffffffffffffffffffffffffffffffffffffffffffffffff191690817bffffffffffffffffffffffffffffffffffffffffffffffffffffffff191681525050849050949350505050565b612bfc826003835161317e565b612c0f81836132d290919063ffffffff16565b505050565b600030600454604051602001612c2b92919061489b565b604051602081830303815290604052805190602001209050600454856060018181525050856005600083815260200190815260200160002060006101000a81548173ffffffffffffffffffffffffffffffffffffffff021916908373ffffffffffffffffffffffffffffffffffffffff160217905550807fb5e6e01e79f91267dc17b4e6314d5d4d03593d2ceee0fbb452b750bd70ea5af960405160405180910390a2600082600080886000015189602001518a604001518b606001518a8d6080015160000151604051602401612d09989796959493929190614957565b604051602081830303815290604052907bffffffffffffffffffffffffffffffffffffffffffffffffffffffff19166020820180517bffffffffffffffffffffffffffffffffffffffffffffffffffffffff83818316178352505050509050600260009054906101000a900473ffffffffffffffffffffffffffffffffffffffff1673ffffffffffffffffffffffffffffffffffffffff16634000aea08887846040518463ffffffff167c0100000000000000000000000000000000000000000000000000000000028152600401612de3939291906149dc565b6020604051808303816000875af1158015612e02573d6000803e3d6000fd5b505050506040513d601f19601f82011682018060405250810190612e269190614521565b612e65576040517f08c379a0000000000000000000000000000000000000000000000000000000008152600401612e5c90614a8c565b60405180910390fd5b600160046000828254612e78919061419a565b925050819055505095945050505050565b6000808490506000868511612fb15760208511612f535760006001866020612eb191906146dd565b6008612ebd9190614752565b6002612ec99190614bdf565b612ed391906146dd565b19600102905060008186511690506000878a8a612ef0919061419a565b612efa91906146dd565b905060008386511690505b828114612f4557818610612f2c578a8a612f1f919061419a565b9650505050505050612fc2565b8580612f379061421f565b965050838651169050612f05565b859650505050505050612fc2565b60008585209050600091505b8588612f6b91906146dd565b8211612faf576000868420905080821415612f8c5783945050505050612fc2565b600184612f99919061419a565b9350508180612fa79061421f565b925050612f5f565b505b8686612fbd919061419a565b925050505b949350505050565b612fd261363d565b6000612ff08560000151866020015186600001518760200151612e89565b9050846020015183602001818152505084602001518161301091906146dd565b8360000181815250508460000151856020015161302d919061419a565b81141561304457600085600001818152505061308a565b83600001518360000151613058919061419a565b8560000181815161306991906146dd565b91508181525050836000015181613080919061419a565b8560200181815250505b829150509392505050565b5b602081106130d457815183526020836130af919061419a565b92506020826130be919061419a565b91506020816130cd91906146dd565b9050613096565b600060018260206130e591906146dd565b6101006130f29190614bdf565b6130fc91906146dd565b90508019835116818551168181178652505050505050565b61311c613657565b600060208361312b919061467b565b146131575760208261313d919061467b565b602061314991906146dd565b82613154919061419a565b91505b81836020018181525050604051808452600081528281016020016040525082905092915050565b601781116131ae576131a88160058460ff169060020a0260ff1617846132f490919063ffffffff16565b506132cd565b60ff81116131f3576131d6601860058460ff169060020a0217846132f490919063ffffffff16565b506131ed816001856133149092919063ffffffff16565b506132cc565b61ffff81116132395761321c601960058460ff169060020a0217846132f490919063ffffffff16565b50613233816002856133149092919063ffffffff16565b506132cb565b63ffffffff811161328157613264601a60058460ff169060020a0217846132f490919063ffffffff16565b5061327b816004856133149092919063ffffffff16565b506132ca565b67ffffffffffffffff81116132c9576132b0601b60058460ff169060020a0217846132f490919063ffffffff16565b506132c7816008856133149092919063ffffffff16565b505b5b5b5b5b505050565b6132da613657565b6132ec83846000015151848551613336565b905092915050565b6132fc613657565b61330c8384600001515184613425565b905092915050565b61331c613657565b61332d84856000015151858561347c565b90509392505050565b61333e613657565b825182111561334c57600080fd5b8460200151828561335d919061419a565b1115613392576133918560026133828860200151888761337d919061419a565b61350a565b61338c9190614752565b613526565b5b6000808651805187602083010193508088870111156133b15787860182525b60208701925050505b602084106133f857805182526020826133d3919061419a565b91506020816133e2919061419a565b90506020846133f191906146dd565b93506133ba565b60006001856020036101000a03905080198251168184511681811785525050508692505050949350505050565b61342d613657565b8360200151831061345357613452846002866020015161344d9190614752565b613526565b5b835180516020858301018481538186141561346f576001820183525b5050508390509392505050565b613484613657565b84602001518483613495919061419a565b11156134bd576134bc85600286856134ad919061419a565b6134b79190614752565b613526565b5b60006001836101006134cf9190614bdf565b6134d991906146dd565b905085518386820101858319825116178152815185880111156134fc5784870182525b505085915050949350505050565b60008183111561351c57829050613520565b8190505b92915050565b6000826000015190506135398383613114565b5061354483826132d2565b50505050565b82805461355690613ece565b90600052602060002090601f01602090048101928261357857600085556135bf565b82601f1061359157805160ff19168380011785556135bf565b828001600101855582156135bf579182015b828111156135be5782518255916020019190600101906135a3565b5b5090506135cc9190613671565b5090565b6040518060a0016040528060008019168152602001600073ffffffffffffffffffffffffffffffffffffffff16815260200160007bffffffffffffffffffffffffffffffffffffffffffffffffffffffff1916815260200160008152602001613637613657565b81525090565b604051806040016040528060008152602001600081525090565b604051806040016040528060608152602001600081525090565b5b8082111561368a576000816000905550600101613672565b5090565b6000604051905090565b600080fd5b600080fd5b6000819050919050565b6136b5816136a2565b81146136c057600080fd5b50565b6000813590506136d2816136ac565b92915050565b6000602082840312156136ee576136ed613698565b5b60006136fc848285016136c3565b91505092915050565b6000819050919050565b61371881613705565b82525050565b6000602082019050613733600083018461370f565b92915050565b600081519050919050565b600082825260208201905092915050565b60005b83811015613773578082015181840152602081019050613758565b83811115613782576000848401525b50505050565b6000601f19601f8301169050919050565b60006137a482613739565b6137ae8185613744565b93506137be818560208601613755565b6137c781613788565b840191505092915050565b6137db816136a2565b82525050565b600060808201905081810360008301526137fb8187613799565b9050818103602083015261380f8186613799565b905081810360408301526138238185613799565b905061383260608301846137d2565b95945050505050565b600060208201905081810360008301526138558184613799565b905092915050565b600080fd5b600080fd5b7f4e487b7100000000000000000000000000000000000000000000000000000000600052604160045260246000fd5b61389f82613788565b810181811067ffffffffffffffff821117156138be576138bd613867565b5b80604052505050565b60006138d161368e565b90506138dd8282613896565b919050565b600067ffffffffffffffff8211156138fd576138fc613867565b5b61390682613788565b9050602081019050919050565b82818337600083830152505050565b6000613935613930846138e2565b6138c7565b90508281526020810184848401111561395157613950613862565b5b61395c848285613913565b509392505050565b600082601f8301126139795761397861385d565b5b8135613989848260208601613922565b91505092915050565b6000602082840312156139a8576139a7613698565b5b600082013567ffffffffffffffff8111156139c6576139c561369d565b5b6139d284828501613964565b91505092915050565b600080600080600060a086880312156139f7576139f6613698565b5b6000613a05888289016136c3565b955050602086013567ffffffffffffffff811115613a2657613a2561369d565b5b613a3288828901613964565b945050604086013567ffffffffffffffff811115613a5357613a5261369d565b5b613a5f88828901613964565b935050606086013567ffffffffffffffff811115613a8057613a7f61369d565b5b613a8c88828901613964565b9250506080613a9d888289016136c3565b9150509295509295909350565b60006040820190508181036000830152613ac48185613799565b9050613ad360208301846137d2565b9392505050565b613ae381613705565b8114613aee57600080fd5b50565b600081359050613b0081613ada565b92915050565b60008060408385031215613b1d57613b1c613698565b5b6000613b2b85828601613af1565b9250506020613b3c85828601613af1565b9150509250929050565b600060a082019050613b5b60008301886137d2565b8181036020830152613b6d8187613799565b90508181036040830152613b818186613799565b90508181036060830152613b958185613799565b9050613ba460808301846137d2565b9695505050505050565b600073ffffffffffffffffffffffffffffffffffffffff82169050919050565b6000613bd982613bae565b9050919050565b613be981613bce565b82525050565b6000602082019050613c046000830184613be0565b92915050565b6000606082019050613c1f60008301866137d2565b8181036020830152613c318185613799565b9050613c4060408301846137d2565b949350505050565b600081519050919050565b600082825260208201905092915050565b6000819050602082019050919050565b613c7d816136a2565b82525050565b6000613c8f8383613c74565b60208301905092915050565b6000602082019050919050565b6000613cb382613c48565b613cbd8185613c53565b9350613cc883613c64565b8060005b83811015613cf9578151613ce08882613c83565b9750613ceb83613c9b565b925050600181019050613ccc565b5085935050505092915050565b60006020820190508181036000830152613d208184613ca8565b905092915050565b60008060408385031215613d3f57613d3e613698565b5b6000613d4d858286016136c3565b9250506020613d5e858286016136c3565b9150509250929050565b60008115159050919050565b613d7d81613d68565b82525050565b6000602082019050613d986000830184613d74565b92915050565b600080600060608486031215613db757613db6613698565b5b6000613dc5868287016136c3565b935050602084013567ffffffffffffffff811115613de657613de561369d565b5b613df286828701613964565b9250506040613e03868287016136c3565b9150509250925092565b7f6f6e6c794f776e65723a2063616c6c6572206973206e6f742074686520636f6e60008201527f7472616374206f776e6572000000000000000000000000000000000000000000602082015250565b6000613e69602b83613744565b9150613e7482613e0d565b604082019050919050565b60006020820190508181036000830152613e9881613e5c565b9050919050565b7f4e487b7100000000000000000000000000000000000000000000000000000000600052602260045260246000fd5b60006002820490506001821680613ee657607f821691505b60208210811415613efa57613ef9613e9f565b5b50919050565b600081905092915050565b60008190508160005260206000209050919050565b60008154613f2d81613ece565b613f378186613f00565b94506001821660008114613f525760018114613f6357613f96565b60ff19831686528186019350613f96565b613f6c85613f0b565b60005b83811015613f8e57815481890152600182019150602081019050613f6f565b838801955050505b50505092915050565b6000613faa82613739565b613fb48185613f00565b9350613fc4818560208601613755565b80840191505092915050565b6000613fdc8286613f20565b9150613fe88285613f9f565b9150613ff48284613f9f565b9150819050949350505050565b7f726163654578697374733a207261636520616c72656164792065786973747300600082015250565b6000614037601f83613744565b915061404282614001565b602082019050919050565b600060208201905081810360008301526140668161402a565b9050919050565b7f726163654578697374733a207261636520646f6573206e6f7420657869730000600082015250565b60006140a3601e83613744565b91506140ae8261406d565b602082019050919050565b600060208201905081810360008301526140d281614096565b9050919050565b7f616c6c6f776564416464726573733a2063616c6c6572206973206e6f7420616c60008201527f6c6f776564000000000000000000000000000000000000000000000000000000602082015250565b6000614135602583613744565b9150614140826140d9565b604082019050919050565b6000602082019050818103600083015261416481614128565b9050919050565b7f4e487b7100000000000000000000000000000000000000000000000000000000600052601160045260246000fd5b60006141a5826136a2565b91506141b0836136a2565b9250827fffffffffffffffffffffffffffffffffffffffffffffffffffffffffffffffff038211156141e5576141e461416b565b5b828201905092915050565b7f4e487b7100000000000000000000000000000000000000000000000000000000600052603260045260246000fd5b600061422a826136a2565b91507fffffffffffffffffffffffffffffffffffffffffffffffffffffffffffffffff82141561425d5761425c61416b565b5b600182019050919050565b7f736574486f72736546726f6d4353563a206c656e7468206f662074686520696e60008201527f666f726d6174696f6e20726574726965766564206e6f742076616c6964000000602082015250565b60006142c4603d83613744565b91506142cf82614268565b604082019050919050565b600060208201905081810360008301526142f3816142b7565b9050919050565b7f686f7273654578697374733a20686f72736520616c726561647920657869737460008201527f7300000000000000000000000000000000000000000000000000000000000000602082015250565b6000614356602183613744565b9150614361826142fa565b604082019050919050565b6000602082019050818103600083015261438581614349565b9050919050565b7f686f7273654578697374733a20686f72736520646f6573206e6f742065786973600082015250565b60006143c2602083613744565b91506143cd8261438c565b602082019050919050565b600060208201905081810360008301526143f1816143b5565b9050919050565b7f536f75726365206d75737420626520746865206f7261636c65206f662074686560008201527f2072657175657374000000000000000000000000000000000000000000000000602082015250565b6000614454602883613744565b915061445f826143f8565b604082019050919050565b6000602082019050818103600083015261448381614447565b9050919050565b600081519050614499816136ac565b92915050565b6000602082840312156144b5576144b4613698565b5b60006144c38482850161448a565b91505092915050565b60006040820190506144e16000830185613be0565b6144ee60208301846137d2565b9392505050565b6144fe81613d68565b811461450957600080fd5b50565b60008151905061451b816144f5565b92915050565b60006020828403121561453757614536613698565b5b60006145458482850161450c565b91505092915050565b7f556e61626c6520746f207472616e736665720000000000000000000000000000600082015250565b6000614584601283613744565b915061458f8261454e565b602082019050919050565b600060208201905081810360008301526145b381614577565b9050919050565b7f77696e73486176654368616e6765643a2077696e7320646f206e6f74206d617460008201527f6368000000000000000000000000000000000000000000000000000000000000602082015250565b6000614616602283613744565b9150614621826145ba565b604082019050919050565b6000602082019050818103600083015261464581614609565b9050919050565b7f4e487b7100000000000000000000000000000000000000000000000000000000600052601260045260246000fd5b6000614686826136a2565b9150614691836136a2565b9250826146a1576146a061464c565b5b828206905092915050565b60006146b7826136a2565b91506146c2836136a2565b9250826146d2576146d161464c565b5b828204905092915050565b60006146e8826136a2565b91506146f3836136a2565b9250828210156147065761470561416b565b5b828203905092915050565b600060ff82169050919050565b600061472982614711565b915061473483614711565b9250828210156147475761474661416b565b5b828203905092915050565b600061475d826136a2565b9150614768836136a2565b9250817fffffffffffffffffffffffffffffffffffffffffffffffffffffffffffffffff04831182151516156147a1576147a061416b565b5b828202905092915050565b60006147b782614711565b915060ff8214156147cb576147ca61416b565b5b600182019050919050565b6000819050919050565b60006147fb6147f66147f184613bae565b6147d6565b613bae565b9050919050565b600061480d826147e0565b9050919050565b600061481f82614802565b9050919050565b60006c0100000000000000000000000082029050919050565b600061484a82614826565b9050919050565b600061485c8261483f565b9050919050565b61487461486f82614814565b614851565b82525050565b6000819050919050565b614895614890826136a2565b61487a565b82525050565b60006148a78285614863565b6014820191506148b78284614884565b6020820191508190509392505050565b60007fffffffff0000000000000000000000000000000000000000000000000000000082169050919050565b6148fc816148c7565b82525050565b600081519050919050565b600082825260208201905092915050565b600061492982614902565b614933818561490d565b9350614943818560208601613755565b61494c81613788565b840191505092915050565b60006101008201905061496d600083018b613be0565b61497a602083018a6137d2565b614987604083018961370f565b6149946060830188613be0565b6149a160808301876148f3565b6149ae60a08301866137d2565b6149bb60c08301856137d2565b81810360e08301526149cd818461491e565b90509998505050505050505050565b60006060820190506149f16000830186613be0565b6149fe60208301856137d2565b8181036040830152614a10818461491e565b9050949350505050565b7f756e61626c6520746f207472616e73666572416e6443616c6c20746f206f726160008201527f636c650000000000000000000000000000000000000000000000000000000000602082015250565b6000614a76602383613744565b9150614a8182614a1a565b604082019050919050565b60006020820190508181036000830152614aa581614a69565b9050919050565b6000600282049050919050565b6000808291508390505b6001851115614b0357808604811115614adf57614ade61416b565b5b6001851615614aee5780820291505b8081029050614afc85614aac565b9450614ac3565b94509492505050565b600082614b1c5760019050614bd8565b81614b2a5760009050614bd8565b8160018114614b405760028114614b4a57614b79565b6001915050614bd8565b60ff841115614b5c57614b5b61416b565b5b8360020a915084821115614b7357614b7261416b565b5b50614bd8565b5060208310610133831016604e8410600b8410161715614bae5782820a905083811115614ba957614ba861416b565b5b614bd8565b614bbb8484846001614ab9565b92509050818404811115614bd257614bd161416b565b5b81810290505b9392505050565b6000614bea826136a2565b9150614bf5836136a2565b9250614c227fffffffffffffffffffffffffffffffffffffffffffffffffffffffffffffffff8484614b0c565b90509291505056fea2646970667358221220e67bc06f32f7baf3f0d7b24d4e72d2e6b99c8fe424fc7c618a724995cd97afb264736f6c634300080a003368747470733a2f2f6768646261646d696e2e6d657461747572662e636f6d2f726573742f726573745f776562332e7068703f7265736f757263653d676574486f727365446174612669643d68747470733a2f2f6768646261646d696e2e6d657461747572662e636f6d2f726573742f726573745f776562332e7068703f7265736f757263653d67657477696e6e65722669643d",
  "immutableReferences": {},
  "source": "// SPDX-License-Identifier: MIT\n//pragma solidity >=0.6.0;\npragma solidity ^0.8.7;\n\n//import \"./MetaturfAPIConsumer.sol\";\nimport \"@chainlink/contracts/src/v0.8/ChainlinkClient.sol\";\n\nimport \"./strings.sol\";\n\nlibrary MetaturfStructs {\n\n    struct Horse {\n        uint256 horseid;\n        string name;\n        uint256 wins;\n    }\n \n    struct Race {\n        uint256 raceid;\n        string racecourse;\n        string date;\n        string time;\n        uint256 winnerhorseid;\n    }    \n}\ncontract MetaturfHorseRacingData is ChainlinkClient {\n\n    using Chainlink for Chainlink.Request;\n    using strings for *;\n\n    address public owner;\n\n    using Chainlink for Chainlink.Request;\n    \n    string raceWinnerRequest;\n    string horseDataRequest;\n\n    string public temp_winner; //Para pruebas\n\n    address private oracle;\n    bytes32 private jobId;\n    uint256 private fee;\n \n    mapping (uint => MetaturfStructs.Race) public races;\n    mapping (uint => MetaturfStructs.Horse) public horses;\n \n    //https://medium.com/@blockchain101/looping-in-solidity-32c621e05c22\n    uint256[] private horseList;\n    uint256[] private raceList;\n\n    event LogFulfillRaceWinner(string winner);\n    event LogFulfillHorseData(string horsedata);\n\n    event LogSetHorse(uint256 horseid, string name, uint256 wins);\n    event LogSetRace(uint256 raceid, string racecourse, string date, string time, uint256 winnerhorseid);\n    \n    modifier onlyOwner() {\n      require (msg.sender == owner, \"onlyOwner: caller is not the contract owner\");\n      _;\n    }\n\n    modifier allowedAddress() {\n      require ( (msg.sender == owner) || (msg.sender == oracle),\n        \"allowedAddress: caller is not allowed\");\n      _;\n    }\n\n    modifier horseExists(uint256 _horseid, bool _exist)   {\n        if(!_exist) {\n          require (horses[_horseid].horseid == 0, \"horseExists: horse already exists\");\n        } else {\n          require (horses[_horseid].horseid != 0, \"horseExists: horse does not exis\");  \n        }\n        _;\n    }\n\n    modifier raceExists(uint _raceid, bool _exist)   {\n        if(!_exist) {\n          require (races[_raceid].raceid == 0, \"raceExists: race already exists\");\n        } else {\n          require (races[_raceid].raceid != 0, \"raceExists: race does not exis\");  \n        }\n        _;\n    }\n    \n    modifier winsHaveChanged(uint256 _horseid, uint256 _wins) {\n        require (horses[_horseid].wins < _wins, \"winsHaveChanged: wins do not match\");\n        _;\n    }\n\n    constructor() {\n        owner = msg.sender;\n        temp_winner = \"\";\n        setPublicChainlinkToken();\n        oracle = 0x9dD3298DAd96648E7fdF5632b9813D22Bbb3eb61;\n        jobId = \"9daa7f5130ab4439a63dee42a15d119a\"; //Correcto\n        fee = 1 * 10 ** 18; // 1 LINK\n        \n        //lastRacesRequest = \"https://ghdbadmin.metaturf.com/rest/rest_web3.php?resource=listraces&id=1&date=20210619&format=json\";\n        raceWinnerRequest = \"https://ghdbadmin.metaturf.com/rest/rest_web3.php?resource=getwinner&id=\";\n        horseDataRequest = \"https://ghdbadmin.metaturf.com/rest/rest_web3.php?resource=getHorseData&id=\";\n    }\n\n    function requestOracleRaceWinner(uint _raceid) public onlyOwner returns (bytes32 requestId) {\n\n        Chainlink.Request memory request = buildChainlinkRequest(jobId, address(this), this.fulfillRaceWinner.selector);\n       \n        string memory raceid = uintToString(_raceid);\n        string memory format = \"&format=json\";\n       \n        // Set the URL to perform the GET request on\n        //request.add(\"get\", \"https://ghdbadmin.metaturf.com/rest/rest_web3.php?resource=getwinner&id=7178&format=json\");\n        string memory requestb = string(abi.encodePacked(raceWinnerRequest, raceid, format));\n        request.add(\"get\", requestb);\n        \n        // Set the path to find the desired data in the API response, where the response format is:\n        // {\"code\":1,\n        //   \"status\":200,\n        //   \"data\":{\n        //     \"winner\":\"13882,GALILODGE (FR),1\"\n        //    }\n        // }\n \n        request.add(\"path\", \"data.winner\");\n        \n        // Sends the request\n        return sendChainlinkRequestTo(oracle, request, fee);\n    }\n    function get_temp_winner() public view returns(string memory){\n        return temp_winner;\n    }\n    /**\n     * Receive the response in the form of bytes32\n     */ \n    function fulfillRaceWinner(bytes32 _requestId, bytes32 _winner) public allowedAddress recordChainlinkFulfillment(_requestId) {\n\n        string memory csvhorsedata = bytes32ToString(_winner);\n        temp_winner = csvhorsedata;\n        setHorseFromCSV(csvhorsedata);\n        \n        emit LogFulfillRaceWinner(csvhorsedata);\n\n        return;\n    }\n\n    function requestOracleHorseData(uint _horseid) public onlyOwner returns (bytes32 requestId) {\n\n        Chainlink.Request memory request = buildChainlinkRequest(jobId, address(this), this.fulfillHorseData.selector);\n       \n        string memory horseid = uintToString(_horseid);\n        string memory format = \"&format=json\";\n       \n        // Set the URL to perform the GET request on\n        //request.add(\"get\", \"https://ghdbadmin.metaturf.com/rest/rest_web3.php?resource=gethorsedata&id=141268&format=json\");\n        string memory requestb = string(abi.encodePacked(horseDataRequest, horseid, format));\n        request.add(\"get\", requestb);\n        \n        // Set the path to find the desired data in the API response, where the response format is:\n        //{\"code\":1,\"status\":200,\n        //  \"data\": {\n        //      \"name\":\"CASILDA (SPA)\",\n        //      \"sex\":\"Y\",\n        //      \"birthdate\":\"2019-01-01\",\n        //      \"debutant\":\"false\",\n        //      \"national\":\"true\",\n        //      \"prizes\":38400,\n        //      \"wins\":2\n        //  }\n        //}\n\n        request.add(\"path\", \"data\");\n        \n        // Sends the request\n        return sendChainlinkRequestTo(oracle, request, fee);\n    }\n    \n    /**\n     * Receive the response in the form of bytes32\n     */ \n    function fulfillHorseData(bytes32 _requestId, bytes32 _horsedata) public allowedAddress recordChainlinkFulfillment(_requestId) {\n\n        string memory horsedata = bytes32ToString(_horsedata);\n\n        //setHorseFromCSV(horsedata);\n\n        //emit LogFulfillHorseData(horsedata);\n    \n        return;\n    } \n    \n    /**\n     * Withdraw LINK from this contract\n     * \n     * NOTE: DO NOT USE THIS IN PRODUCTION AS IT CAN BE CALLED BY ANY ADDRESS.\n     * THIS IS PURELY FOR EXAMPLE PURPOSES ONLY.\n     */\n    function withdrawLink() external {\n        LinkTokenInterface linkToken = LinkTokenInterface(chainlinkTokenAddress());\n        require(linkToken.transfer(msg.sender, linkToken.balanceOf(address(this))), \"Unable to transfer\");\n    }\n\n    function theHorseExists(uint256 _horseid) public view returns(bool) {\n        if(horses[_horseid].horseid == 0) return false;\n        return true;\n    }\n    function setHorse(uint _horseid, string memory _name, uint _wins) public onlyOwner horseExists(_horseid, false) {\n \n        horseList.push(_horseid);\n\n        horses[_horseid] = MetaturfStructs.Horse({\n            horseid: _horseid,\n            name: _name,\n            wins: _wins\n        });\n        emit LogSetHorse(_horseid, _name, _wins);\n    }\n\n    function setHorseFromCSV(string memory _csvhorsedata) public allowedAddress {\n        //i.e. \"13882,GALILODGE (FR),1\";\n\n        strings.slice memory s = _csvhorsedata.toSlice();\n        strings.slice memory delim = \",\".toSlice();\n        string[] memory parts = new string[](s.count(delim) + 1);\n        for(uint i = 0; i < parts.length; i++) {\n            parts[i] = s.split(delim).toString();\n        }\n\n        require(parts.length == 3, \"setHorseFromCSV: lenth of the information retrieved not valid\");\n\n        uint256 horseid = stringToUint(parts[0]);\n\n        //Si el caballo no existe, lo creamos\n        if (horses[horseid].horseid == 0) {\n\n            horseList.push(horseid);\n\n            horses[horseid] = MetaturfStructs.Horse({\n                horseid: horseid,\n                name: parts[1],\n                wins: stringToUint(parts[2])\n            });\n\n        } else {\n\n            if (horses[horseid].wins != stringToUint(parts[2])) {\n                horses[horseid].wins = stringToUint(parts[2]);\n            }\n        }\n        emit LogSetHorse(horseid, parts[1], stringToUint(parts[2]));\n    }\n    \n    function getHorse(uint256 _horseid) public view horseExists(_horseid, true) returns (string memory, uint) {\n        return (\n            horses[_horseid].name,\n            horses[_horseid].wins\n        );\n    }\n    \n    function listHorses() public view returns(uint256[] memory) {\n        return horseList;\n    }\n\n    function updateHorseWins(uint256 _horseid, uint256 _wins) public onlyOwner horseExists(_horseid, true) winsHaveChanged(_horseid, _wins) {\n        horses[_horseid].wins = _wins;\n    }\n    \n    function setRace(uint256 _raceid, string memory _racecourse, string memory _date, string memory _time, uint256 _winnerhorseid) public onlyOwner horseExists(_winnerhorseid, true) raceExists(_raceid, false) {\n        \n        raceList.push(_raceid);\n\n        races[_raceid] = MetaturfStructs.Race({\n            raceid: _raceid,\n            racecourse: _racecourse,\n            date: _date,\n            time: _time,\n            winnerhorseid: _winnerhorseid\n        });\n        emit LogSetRace(_raceid, _racecourse, _date, _time, _winnerhorseid);\n    }\n    \n    function getRace(uint256 _raceid) public view raceExists(_raceid, true) returns (string memory, string memory, string memory, uint256) {\n        return (\n            races[_raceid].racecourse,\n            races[_raceid].date,\n            races[_raceid].time,\n            races[_raceid].winnerhorseid\n        );\n    }\n\n    function listRaces() public view returns(uint256[] memory) {\n        return raceList;\n    }\n\n    //////////////////////\n    // HELPER FUNCTIONS //\n    //////////////////////\n    function bytes32ToString(bytes32 _bytes32) internal pure returns (string memory) {\n        uint8 i = 0;\n        while(i < 32 && _bytes32[i] != 0) {\n            i++;\n        }\n        bytes memory bytesArray = new bytes(i);\n        for (i = 0; i < 32 && _bytes32[i] != 0; i++) {\n            bytesArray[i] = _bytes32[i];\n        }\n        return string(bytesArray);\n    }\n    \n    //https://ethereum.stackexchange.com/questions/10811/solidity-concatenate-uint-into-a-string\n    function uintToString(uint v) internal pure returns (string memory) {\n        uint maxlength = 100;\n        bytes memory reversed = new bytes(maxlength);\n        uint i = 0;\n        while (v != 0) {\n            uint remainder = v % 10;\n            v = v / 10;\n            reversed[i++] = bytes1(uint8(48 + remainder));\n        }\n        bytes memory s = new bytes(i);\n        for (uint j = 0; j < i; j++) {\n            s[j] = reversed[i - 1 - j];\n        }\n        return string(s);\n    }\n    \n    //https://ethereum.stackexchange.com/questions/10811/solidity-concatenate-uint-into-a-string\n    function appendUintToString(string memory inStr, uint v) internal pure returns (string memory) {\n        uint maxlength = 100;\n        bytes memory reversed = new bytes(maxlength);\n        uint i = 0;\n        while (v != 0) {\n            uint remainder = v % 10;\n            v = v / 10;\n            reversed[i++] = bytes1(uint8(48 + remainder));\n        }\n        bytes memory inStrb = bytes(inStr);\n        bytes memory s = new bytes(inStrb.length + i);\n        uint j;\n        for (j = 0; j < inStrb.length; j++) {\n            s[j] = inStrb[j];\n        }\n        for (j = 0; j < i; j++) {\n            s[j + inStrb.length] = reversed[i - 1 - j];\n        }\n        return string(s);\n    }\n   \n    //https://ethereum.stackexchange.com/questions/10932/how-to-convert-string-to-int \n    function stringToUint(string memory s) internal pure returns (uint) {\n        bytes memory b = bytes(s);\n        uint result = 0;\n        for (uint i = 0; i < b.length; i++) { // c = b[i] was not needed\n            if (uint8(b[i]) >= 48 && uint8(b[i]) <= 57) {\n                result = result * 10 + (uint8(b[i]) - 48); // bytes and int are not compatible with the operator -.\n            }\n        }\n        return result; // this was missing\n    }\n}\n",
  "sourcePath": "/Users/dmolina/Consensys/blockchain-developer-bootcamp-final-project/contracts/MetaturfHorseRacingData.sol",
  "compiler": {
    "name": "solc",
    "version": "0.8.10+commit.fc410830.Emscripten.clang"
  },
  "schemaVersion": "3.4.3",
  "updatedAt": "2021-11-10T18:50:03.355Z",
  "devdoc": {
    "kind": "dev",
    "methods": {},
    "version": 1
  },
  "userdoc": {
    "kind": "user",
    "methods": {
      "fulfillHorseData(bytes32,bytes32)": {
        "notice": "Receive the response in the form of bytes32"
      },
      "fulfillRaceWinner(bytes32,bytes32)": {
        "notice": "Receive the response in the form of bytes32"
      },
      "withdrawLink()": {
        "notice": "Withdraw LINK from this contract  NOTE: DO NOT USE THIS IN PRODUCTION AS IT CAN BE CALLED BY ANY ADDRESS. THIS IS PURELY FOR EXAMPLE PURPOSES ONLY."
      }
    },
    "version": 1
  }
}